{
  "contractName": "ChaotiCasino",
  "abi": [
    {
      "constant": true,
      "inputs": [],
      "name": "last_completed_migration",
      "outputs": [
        {
          "name": "",
          "type": "uint256"
        }
      ],
      "payable": false,
      "stateMutability": "view",
      "type": "function"
    },
    {
      "constant": true,
      "inputs": [],
      "name": "owner",
      "outputs": [
        {
          "name": "",
          "type": "address"
        }
      ],
      "payable": false,
      "stateMutability": "view",
      "type": "function"
    },
    {
      "constant": false,
      "inputs": [
        {
          "name": "newOwner",
          "type": "address"
        }
      ],
      "name": "changeOwner",
      "outputs": [],
      "payable": false,
      "stateMutability": "nonpayable",
      "type": "function"
    },
    {
      "constant": false,
      "inputs": [
        {
          "name": "completed",
          "type": "uint256"
        }
      ],
      "name": "setCompleted",
      "outputs": [],
      "payable": false,
      "stateMutability": "nonpayable",
      "type": "function"
    },
    {
      "inputs": [
        {
          "name": "_daiAddress",
          "type": "address"
        }
      ],
      "payable": false,
      "stateMutability": "nonpayable",
      "type": "constructor"
    },
    {
      "payable": true,
      "stateMutability": "payable",
      "type": "fallback"
    },
    {
      "constant": false,
      "inputs": [
        {
          "name": "_amount",
          "type": "uint256"
        },
        {
          "name": "_winMultiply",
          "type": "uint256"
        }
      ],
      "name": "roulette_Og2",
      "outputs": [],
      "payable": false,
      "stateMutability": "nonpayable",
      "type": "function"
    },
    {
      "constant": true,
      "inputs": [],
      "name": "getLastResult",
      "outputs": [
        {
          "name": "_lastResult",
          "type": "uint256"
        }
      ],
      "payable": false,
      "stateMutability": "view",
      "type": "function"
    },
    {
      "constant": false,
      "inputs": [
        {
          "name": "_user",
          "type": "address"
        }
      ],
      "name": "resetBonus",
      "outputs": [],
      "payable": false,
      "stateMutability": "nonpayable",
      "type": "function"
    },
    {
      "constant": true,
      "inputs": [],
      "name": "getBonusResult",
      "outputs": [
        {
          "name": "_bonusResult",
          "type": "uint256"
        }
      ],
      "payable": false,
      "stateMutability": "view",
      "type": "function"
    },
    {
      "constant": true,
      "inputs": [
        {
          "name": "_winMultiply",
          "type": "uint256"
        }
      ],
      "name": "checkPercent",
      "outputs": [
        {
          "name": "_tantpercent",
          "type": "uint256"
        }
      ],
      "payable": false,
      "stateMutability": "view",
      "type": "function"
    },
    {
      "constant": false,
      "inputs": [],
      "name": "takeBenefits",
      "outputs": [],
      "payable": false,
      "stateMutability": "nonpayable",
      "type": "function"
    },
    {
      "constant": false,
      "inputs": [
        {
          "name": "_newOwnerAddres",
          "type": "address"
        }
      ],
      "name": "newOwner",
      "outputs": [],
      "payable": false,
      "stateMutability": "nonpayable",
      "type": "function"
    },
    {
      "constant": false,
      "inputs": [
        {
          "name": "_maxAmount",
          "type": "uint256"
        },
        {
          "name": "_newMaxId",
          "type": "uint256"
        },
        {
          "name": "_newMaxWinMult",
          "type": "uint8"
        },
        {
          "name": "_multiplyPerCent",
          "type": "uint8"
        }
      ],
      "name": "changeParams",
      "outputs": [],
      "payable": false,
      "stateMutability": "nonpayable",
      "type": "function"
    },
    {
      "constant": true,
      "inputs": [],
      "name": "getParams",
      "outputs": [
        {
          "name": "_maxAmount",
          "type": "uint256"
        },
        {
          "name": "_maxId",
          "type": "uint256"
        },
        {
          "name": "_MaxWinMult",
          "type": "uint8"
        },
        {
          "name": "_multiplyPerCent",
          "type": "uint8"
        }
      ],
      "payable": false,
      "stateMutability": "view",
      "type": "function"
    }
  ],
  "bytecode": "0x608060405234801561001057600080fd5b50604051602080611ced8339810180604052602081101561003057600080fd5b8101908080519060200190929190505050336000806101000a81548173ffffffffffffffffffffffffffffffffffffffff021916908373ffffffffffffffffffffffffffffffffffffffff16021790555080600260006101000a81548173ffffffffffffffffffffffffffffffffffffffff021916908373ffffffffffffffffffffffffffffffffffffffff160217905550670de0b6b3a7640000600381905550600060048190555060058060006101000a81548160ff021916908360ff1602179055506003546005026006819055506008600760006101000a81548160ff021916908360ff16021790555050611bc18061012c6000396000f3fe6080604052600436106100c5576000357c0100000000000000000000000000000000000000000000000000000000900463ffffffff16806323c7e48e146100c757806330ef7f7e146100f25780633276751614610151578063445df0ac146101a05780635e615a6b146101cb57806376ed5b9514610217578063859524541461025c5780638da5cb5b146102ad57806392093dd614610304578063a6f9dae11461032f578063c49e512d14610380578063d6a4d19814610397578063fdacd576146103e8575b005b3480156100d357600080fd5b506100dc610423565b6040518082815260200191505060405180910390f35b3480156100fe57600080fd5b5061014f6004803603608081101561011557600080fd5b810190808035906020019092919080359060200190929190803560ff169060200190929190803560ff16906020019092919050505061046a565b005b34801561015d57600080fd5b5061018a6004803603602081101561017457600080fd5b8101908080359060200190929190505050610578565b6040518082815260200191505060405180910390f35b3480156101ac57600080fd5b506101b56105fe565b6040518082815260200191505060405180910390f35b3480156101d757600080fd5b506101e0610604565b604051808581526020018481526020018360ff1660ff1681526020018260ff1660ff16815260200194505050505060405180910390f35b34801561022357600080fd5b5061025a6004803603604081101561023a57600080fd5b810190808035906020019092919080359060200190929190505050610702565b005b34801561026857600080fd5b506102ab6004803603602081101561027f57600080fd5b81019080803573ffffffffffffffffffffffffffffffffffffffff169060200190929190505050611190565b005b3480156102b957600080fd5b506102c2611260565b604051808273ffffffffffffffffffffffffffffffffffffffff1673ffffffffffffffffffffffffffffffffffffffff16815260200191505060405180910390f35b34801561031057600080fd5b50610319611285565b6040518082815260200191505060405180910390f35b34801561033b57600080fd5b5061037e6004803603602081101561035257600080fd5b81019080803573ffffffffffffffffffffffffffffffffffffffff1690602001909291905050506112cc565b005b34801561038c57600080fd5b506103956113d3565b005b3480156103a357600080fd5b506103e6600480360360208110156103ba57600080fd5b81019080803573ffffffffffffffffffffffffffffffffffffffff1690602001909291905050506117ca565b005b3480156103f457600080fd5b506104216004803603602081101561040b57600080fd5b81019080803590602001909291905050506118d6565b005b6000600b60003373ffffffffffffffffffffffffffffffffffffffff1673ffffffffffffffffffffffffffffffffffffffff16815260200190815260200160002054905090565b6000809054906101000a900473ffffffffffffffffffffffffffffffffffffffff1673ffffffffffffffffffffffffffffffffffffffff163373ffffffffffffffffffffffffffffffffffffffff1614151561052e576040517f08c379a00000000000000000000000000000000000000000000000000000000081526004018080602001828103825260098152602001807f4e6f74204f776e6572000000000000000000000000000000000000000000000081525060200191505060405180910390fd5b836006819055508260048190555081600560006101000a81548160ff021916908360ff16021790555080600760006101000a81548160ff021916908360ff16021790555050505050565b60008060035460640290506000836003540290506000600760009054906101000a900460ff1660ff16828115156105ab57fe5b069050600760009054906101000a900460ff1660ff168183038115156105cd57fe5b049050808201915081838115156105e057fe5b069050818184038115156105f057fe5b049250829350505050919050565b60015481565b6000806000806000809054906101000a900473ffffffffffffffffffffffffffffffffffffffff1673ffffffffffffffffffffffffffffffffffffffff163373ffffffffffffffffffffffffffffffffffffffff161415156106ce576040517f08c379a00000000000000000000000000000000000000000000000000000000081526004018080602001828103825260098152602001807f4e6f74204f776e6572000000000000000000000000000000000000000000000081525060200191505060405180910390fd5b600654600454600560009054906101000a900460ff16600760009054906101000a900460ff16935093509350935090919293565b81600260009054906101000a900473ffffffffffffffffffffffffffffffffffffffff1673ffffffffffffffffffffffffffffffffffffffff166370a08231336040518263ffffffff167c0100000000000000000000000000000000000000000000000000000000028152600401808273ffffffffffffffffffffffffffffffffffffffff1673ffffffffffffffffffffffffffffffffffffffff16815260200191505060206040518083038186803b1580156107be57600080fd5b505afa1580156107d2573d6000803e3d6000fd5b505050506040513d60208110156107e857600080fd5b81019080805190602001909291905050501015801561080957506003548210155b151561087d576040517f08c379a000000000000000000000000000000000000000000000000000000000815260040180806020018281038252600e8152602001807f4e6f20656e6f756768742044414900000000000000000000000000000000000081525060200191505060405180910390fd5b600080600090506001831115610d375760065484111580156108b15750600560009054906101000a900460ff1660ff168311155b151561094b576040517f08c379a00000000000000000000000000000000000000000000000000000000081526004018080602001828103825260218152602001807f416d6f756e74206f72206d756c7469706c696572206e6f74206163636570746581526020017f640000000000000000000000000000000000000000000000000000000000000081525060400191505060405180910390fd5b61095560026118e0565b9150600061096284610578565b90508083111515610bb1578385029150600260009054906101000a900473ffffffffffffffffffffffffffffffffffffffff1673ffffffffffffffffffffffffffffffffffffffff1663095ea7b3308785036040518363ffffffff167c0100000000000000000000000000000000000000000000000000000000028152600401808373ffffffffffffffffffffffffffffffffffffffff1673ffffffffffffffffffffffffffffffffffffffff16815260200182815260200192505050602060405180830381600087803b158015610a3957600080fd5b505af1158015610a4d573d6000803e3d6000fd5b505050506040513d6020811015610a6357600080fd5b810190808051906020019092919050505050600260009054906101000a900473ffffffffffffffffffffffffffffffffffffffff1673ffffffffffffffffffffffffffffffffffffffff166323b872dd30338886036040518463ffffffff167c0100000000000000000000000000000000000000000000000000000000028152600401808473ffffffffffffffffffffffffffffffffffffffff1673ffffffffffffffffffffffffffffffffffffffff1681526020018373ffffffffffffffffffffffffffffffffffffffff1673ffffffffffffffffffffffffffffffffffffffff1681526020018281526020019350505050602060405180830381600087803b158015610b7057600080fd5b505af1158015610b84573d6000803e3d6000fd5b505050506040513d6020811015610b9a57600080fd5b810190808051906020019092919050505050610ceb565b600260009054906101000a900473ffffffffffffffffffffffffffffffffffffffff1673ffffffffffffffffffffffffffffffffffffffff166323b872dd3330886040518463ffffffff167c0100000000000000000000000000000000000000000000000000000000028152600401808473ffffffffffffffffffffffffffffffffffffffff1673ffffffffffffffffffffffffffffffffffffffff1681526020018373ffffffffffffffffffffffffffffffffffffffff1673ffffffffffffffffffffffffffffffffffffffff1681526020018281526020019350505050602060405180830381600087803b158015610caa57600080fd5b505af1158015610cbe573d6000803e3d6000fd5b505050506040513d6020811015610cd457600080fd5b810190808051906020019092919050505050600091505b81600a60003373ffffffffffffffffffffffffffffffffffffffff1673ffffffffffffffffffffffffffffffffffffffff1681526020019081526020016000208190555050505061118c565b610d4160016118e0565b91506000821415610d525760035490505b60018210158015610d64575060088211155b15610eb05767016345785d8a000082029050600260009054906101000a900473ffffffffffffffffffffffffffffffffffffffff1673ffffffffffffffffffffffffffffffffffffffff166323b872dd333084600354036040518463ffffffff167c0100000000000000000000000000000000000000000000000000000000028152600401808473ffffffffffffffffffffffffffffffffffffffff1673ffffffffffffffffffffffffffffffffffffffff1681526020018373ffffffffffffffffffffffffffffffffffffffff1673ffffffffffffffffffffffffffffffffffffffff1681526020018281526020019350505050602060405180830381600087803b158015610e7357600080fd5b505af1158015610e87573d6000803e3d6000fd5b505050506040513d6020811015610e9d57600080fd5b8101908080519060200190929190505050505b60098214156110f85760029050600260009054906101000a900473ffffffffffffffffffffffffffffffffffffffff1673ffffffffffffffffffffffffffffffffffffffff1663095ea7b3306003546040518363ffffffff167c0100000000000000000000000000000000000000000000000000000000028152600401808373ffffffffffffffffffffffffffffffffffffffff1673ffffffffffffffffffffffffffffffffffffffff16815260200182815260200192505050602060405180830381600087803b158015610f8457600080fd5b505af1158015610f98573d6000803e3d6000fd5b505050506040513d6020811015610fae57600080fd5b810190808051906020019092919050505050600260009054906101000a900473ffffffffffffffffffffffffffffffffffffffff1673ffffffffffffffffffffffffffffffffffffffff166323b872dd30336003546040518463ffffffff167c0100000000000000000000000000000000000000000000000000000000028152600401808473ffffffffffffffffffffffffffffffffffffffff1673ffffffffffffffffffffffffffffffffffffffff1681526020018373ffffffffffffffffffffffffffffffffffffffff1673ffffffffffffffffffffffffffffffffffffffff1681526020018281526020019350505050602060405180830381600087803b1580156110bb57600080fd5b505af11580156110cf573d6000803e3d6000fd5b505050506040513d60208110156110e557600080fd5b8101908080519060200190929190505050505b80600a60003373ffffffffffffffffffffffffffffffffffffffff1673ffffffffffffffffffffffffffffffffffffffff1681526020019081526020016000208190555080600b60003373ffffffffffffffffffffffffffffffffffffffff1673ffffffffffffffffffffffffffffffffffffffff1681526020019081526020016000206000828254019250508190555050505b5050565b6000809054906101000a900473ffffffffffffffffffffffffffffffffffffffff1673ffffffffffffffffffffffffffffffffffffffff163373ffffffffffffffffffffffffffffffffffffffff16141515611254576040517f08c379a00000000000000000000000000000000000000000000000000000000081526004018080602001828103825260098152602001807f4e6f74204f776e6572000000000000000000000000000000000000000000000081525060200191505060405180910390fd5b61125d816112cc565b50565b6000809054906101000a900473ffffffffffffffffffffffffffffffffffffffff1681565b6000600a60003373ffffffffffffffffffffffffffffffffffffffff1673ffffffffffffffffffffffffffffffffffffffff16815260200190815260200160002054905090565b6000809054906101000a900473ffffffffffffffffffffffffffffffffffffffff1673ffffffffffffffffffffffffffffffffffffffff163373ffffffffffffffffffffffffffffffffffffffff16141515611390576040517f08c379a00000000000000000000000000000000000000000000000000000000081526004018080602001828103825260098152602001807f4e6f74204f776e6572000000000000000000000000000000000000000000000081525060200191505060405180910390fd5b806000806101000a81548173ffffffffffffffffffffffffffffffffffffffff021916908373ffffffffffffffffffffffffffffffffffffffff16021790555050565b6000809054906101000a900473ffffffffffffffffffffffffffffffffffffffff1673ffffffffffffffffffffffffffffffffffffffff163373ffffffffffffffffffffffffffffffffffffffff16141515611497576040517f08c379a00000000000000000000000000000000000000000000000000000000081526004018080602001828103825260098152602001807f4e6f74204f776e6572000000000000000000000000000000000000000000000081525060200191505060405180910390fd5b6000600260009054906101000a900473ffffffffffffffffffffffffffffffffffffffff1673ffffffffffffffffffffffffffffffffffffffff166370a08231306040518263ffffffff167c0100000000000000000000000000000000000000000000000000000000028152600401808273ffffffffffffffffffffffffffffffffffffffff1673ffffffffffffffffffffffffffffffffffffffff16815260200191505060206040518083038186803b15801561155457600080fd5b505afa158015611568573d6000803e3d6000fd5b505050506040513d602081101561157e57600080fd5b81019080805190602001909291905050509050600260009054906101000a900473ffffffffffffffffffffffffffffffffffffffff1673ffffffffffffffffffffffffffffffffffffffff1663095ea7b333836040518363ffffffff167c0100000000000000000000000000000000000000000000000000000000028152600401808373ffffffffffffffffffffffffffffffffffffffff1673ffffffffffffffffffffffffffffffffffffffff16815260200182815260200192505050602060405180830381600087803b15801561165657600080fd5b505af115801561166a573d6000803e3d6000fd5b505050506040513d602081101561168057600080fd5b810190808051906020019092919050505050600260009054906101000a900473ffffffffffffffffffffffffffffffffffffffff1673ffffffffffffffffffffffffffffffffffffffff166323b872dd3033846040518463ffffffff167c0100000000000000000000000000000000000000000000000000000000028152600401808473ffffffffffffffffffffffffffffffffffffffff1673ffffffffffffffffffffffffffffffffffffffff1681526020018373ffffffffffffffffffffffffffffffffffffffff1673ffffffffffffffffffffffffffffffffffffffff1681526020018281526020019350505050602060405180830381600087803b15801561178b57600080fd5b505af115801561179f573d6000803e3d6000fd5b505050506040513d60208110156117b557600080fd5b81019080805190602001909291905050505050565b6000809054906101000a900473ffffffffffffffffffffffffffffffffffffffff1673ffffffffffffffffffffffffffffffffffffffff163373ffffffffffffffffffffffffffffffffffffffff1614151561188e576040517f08c379a00000000000000000000000000000000000000000000000000000000081526004018080602001828103825260098152602001807f4e6f74204f776e6572000000000000000000000000000000000000000000000081525060200191505060405180910390fd5b6000600b60008373ffffffffffffffffffffffffffffffffffffffff1673ffffffffffffffffffffffffffffffffffffffff1681526020019081526020016000208190555050565b8060018190555050565b600080600860003373ffffffffffffffffffffffffffffffffffffffff1673ffffffffffffffffffffffffffffffffffffffff1681526020019081526020016000205414156119d657600454600860003373ffffffffffffffffffffffffffffffffffffffff1673ffffffffffffffffffffffffffffffffffffffff168152602001908152602001600020819055503360096000600454815260200190815260200160002060006101000a81548173ffffffffffffffffffffffffffffffffffffffff021916908373ffffffffffffffffffffffffffffffffffffffff1602179055506004600081548092919060010191905055505b6000423343604051602001808481526020018373ffffffffffffffffffffffffffffffffffffffff1673ffffffffffffffffffffffffffffffffffffffff166c01000000000000000000000000028152601401828152602001807f6368616f746963000000000000000000000000000000000000000000000000008152506007019350505050604051602081830303815290604052805190602001206001900490506000600143034060019004905060045482811515611a9257fe5b0691506009600083815260200190815260200160002060009054906101000a900473ffffffffffffffffffffffffffffffffffffffff1673ffffffffffffffffffffffffffffffffffffffff169150808241604051602001808481526020018381526020018273ffffffffffffffffffffffffffffffffffffffff1673ffffffffffffffffffffffffffffffffffffffff166c010000000000000000000000000281526014019350505050604051602081830303815290604052805190602001206001900491506001841415611b7257600a82811515611b6e57fe5b0691505b6002841415611b8b57606482811515611b8757fe5b0691505b819250505091905056fea165627a7a72305820cadb22619493eae8f3311e83ab7d48c3bbc227d0c5e506fe8f76e0b36147fbad0029",
  "source": "pragma solidity ^0.5.0;\r\n\r\n//Basic library\r\nimport \"./Migrations.sol\";\r\nimport \"@openzeppelin/contracts/token/ERC20/IERC20.sol\";\r\n\r\n//Here start Chaotic Casino version 1\r\n//I hope you enjoy the game, if want to read or reuse that code you are free to go.\r\ncontract ChaotiCasino is Migrations{\r\n \t//Declaration of DAI and other parameters\r\n\tIERC20 dai;\r\n\tuint256 unity;\r\n\tuint256 maxId;\r\n\tuint8 maxWinMult;\r\n\tuint256 maxAmount;\r\n\tuint8 multiplyPerCent;\r\n\tconstructor(address _daiAddress) public{\r\n\t\tdai = IERC20(_daiAddress);\r\n\t\tunity = 10 ** 18;\r\n\t\tmaxId = 0;\r\n\t\tmaxWinMult = 5;\r\n\t\tmaxAmount = 5 * unity;\r\n\t\tmultiplyPerCent = 8;\r\n\t} \r\n\tfunction() external payable{}\r\n\t//User help to do random number\r\n\tmapping (address => uint256) addressToId;\r\n\tmapping (uint256 => address) idToAddress;\r\n\tmapping (address => uint256) lastResult; //Last result of last bet\r\n\tmapping (address => uint256) bonusResult; //Bonus winned by playing our rulettes\r\n\tmodifier addUser() { \r\n\t\tif(addressToId[msg.sender] == 0){\r\n\t\t\taddressToId[msg.sender] = maxId;\r\n\t\t\tidToAddress[maxId] = msg.sender;\r\n\t\t\tmaxId++;\r\n\t\t}\r\n\t\t_; \r\n\t}\r\n\tfunction random_rtq(uint256 _help) internal addUser returns(uint256 _result){//Signature 0x00003147\r\n\t\tuint256 x = uint256(keccak256(abi.encodePacked(now, msg.sender, block.number, \"chaotic\")));//Initial seed + time + caller address + block number\r\n\t\tuint256 blockHashNow = uint256(blockhash(block.number - 1));//BlockHash\r\n\t\tx = x % maxId;//Number must be bellow maxId obviously\r\n\t\tx = uint256(idToAddress[x]);//Random address is selected and tranformed to uint256\r\n\t\tx = uint256(keccak256(abi.encodePacked(blockHashNow, x, block.coinbase)));//The implementation of BlockHash and the miner address, just for fun\r\n\t\tif(_help == 1){ \r\n\t\t\tx = x % 10;\r\n\t\t}\r\n\t\tif(_help == 2){\r\n\t\t\tx = x % 100;\r\n\t\t}\r\n\t\treturn (x);\r\n\t}\r\n\t//Rulette function\r\n\tfunction roulette_Og2(uint256 _amount, uint256 _winMultiply) external{//Signature 0x00001ced\r\n\t\trequire (dai.balanceOf(msg.sender) >= _amount && _amount >= unity, \"No enought DAI\");\r\n\t\tuint x;\r\n\t\tuint256 y = 0;\r\n\t\t//If crazy roulette is on\r\n\t\tif(_winMultiply > 1){\r\n\t\t\trequire(_amount <= maxAmount && _winMultiply <= maxWinMult, \"Amount or multiplier not accepted\");\r\n\t\t\tx = random_rtq(2);\r\n\t\t\tuint perCent = checkPercent(_winMultiply);\r\n\t\t\tif(x <= perCent){\r\n\t\t\t\ty = _amount * _winMultiply;\r\n\t\t\t\tdai.approve(address(this), y - _amount);\r\n\t\t\t\tdai.transferFrom(address(this), msg.sender, y - _amount);\r\n\t\t\t}else{\r\n\t\t\t//Approved first, we transfer the bet from msg.sender\r\n\t\t\tdai.transferFrom(msg.sender, address(this), _amount);\r\n\t\t\ty = 0;\r\n\t\t\t}\r\n\t\t\tlastResult[msg.sender] = y;\r\n\t\t\treturn;\r\n\t\t}\r\n\t\t//Else normal roulette\r\n\t\tx = random_rtq(1);\r\n\t\tif(x == 0){\r\n\t\t\ty = unity;\r\n\t\t}\r\n\t\tif(x >= 1 && x <= 8){\r\n\t\t\ty = x * (10 ** 17);\r\n\t\t\tdai.transferFrom(msg.sender, address(this), unity - y);//Gets just the restant part of the unity\r\n\t\t}\r\n\t\tif(x == 9){\r\n\t\t\ty = 2;\r\n\t\t\tdai.approve(address(this), unity);\r\n\t\t\tdai.transferFrom(address(this), msg.sender, unity);//Retorns +1 => 2 DAI\r\n\t\t}\r\n\t\tlastResult[msg.sender] = y;\r\n\t\tbonusResult[msg.sender] += y;\r\n\t\treturn;\r\n\t\t//Thanks to join our game\r\n\t}\r\n\t//Each of the following functions are used to acces to their personal result of each game\r\n\tfunction getLastResult() external view returns(uint256 _lastResult){\r\n\t\treturn(lastResult[msg.sender]);\r\n\t}\r\n\tfunction resetBonus(address _user) external onlyOwner{//To charge the gift\r\n\t\tbonusResult[_user] = 0;\r\n\t}\r\n\tfunction getBonusResult() external view returns(uint256 _bonusResult){\r\n\t\treturn(bonusResult[msg.sender]);\r\n\t}\r\n\t//% of crazy rulette\r\n\tfunction checkPercent(uint256 _winMultiply) public view returns(uint256 _tantpercent){\r\n\t\tuint256 x = 100 * unity;\r\n\t\tuint256 y = unity * _winMultiply;\r\n\t\tuint256 auxf = y % multiplyPerCent;\r\n\t\tauxf = (y - auxf) / multiplyPerCent;\r\n\t\ty = y + auxf;\r\n\t\tauxf = x % y;\r\n\t\tx = (x - auxf) / y;\r\n\t\treturn x;\r\n\t}\r\n\t//Set Up\r\n\tfunction takeBenefits() external onlyOwner{\r\n\t\tuint256 x = uint256(dai.balanceOf(address(this)));\r\n\t\tdai.approve(msg.sender, x);\r\n\t\tdai.transferFrom(address(this), msg.sender, x);\r\n\t}\r\n\tfunction newOwner(address _newOwnerAddres) external onlyOwner{\r\n\t\tchangeOwner(_newOwnerAddres);\r\n\t}\r\n\tfunction changeParams(uint256 _maxAmount, uint256 _newMaxId, uint8 _newMaxWinMult, uint8 _multiplyPerCent) external onlyOwner{\r\n\t\tmaxAmount = _maxAmount;\r\n\t\tmaxId =  _newMaxId;\r\n\t\tmaxWinMult = _newMaxWinMult;\r\n\t\tmultiplyPerCent = _multiplyPerCent;\r\n\t}\r\n\tfunction getParams() external view onlyOwner returns(uint256 _maxAmount, uint256 _maxId, uint8 _MaxWinMult, uint8 _multiplyPerCent){\r\n\t\treturn(maxAmount, maxId, maxWinMult, multiplyPerCent);\r\n\t}\r\n//Thanks to check this out, it's important that we keep a basic understanding on those games we play and put money on it, for that Ethereum BlockChain is one of the best ways.\r\n//See you on other DAPP !\r\n}\r\n\r\n\r\n\r\n",
  "sourcePath": "C:\\Users\\User\\Desktop\\Project\\CryptoLuck\\contracts\\ChaotiCasino.sol",
  "compiler": {
    "name": "solc",
    "version": "0.5.0+commit.1d4f565a.Emscripten.clang"
  },
  "schemaVersion": "3.2.0",
  "updatedAt": "2020-10-07T13:06:07.223Z",
  "networkType": "ethereum",
  "devdoc": {
    "methods": {}
  },
  "userdoc": {
    "methods": {}
  }
}