{
  "contractName": "ChaotiCasino",
  "abi": [
    {
      "constant": true,
      "inputs": [],
      "name": "last_completed_migration",
      "outputs": [
        {
          "name": "",
          "type": "uint256"
        }
      ],
      "payable": false,
      "stateMutability": "view",
      "type": "function"
    },
    {
      "constant": true,
      "inputs": [],
      "name": "owner",
      "outputs": [
        {
          "name": "",
          "type": "address"
        }
      ],
      "payable": false,
      "stateMutability": "view",
      "type": "function"
    },
    {
      "constant": false,
      "inputs": [
        {
          "name": "newOwner",
          "type": "address"
        }
      ],
      "name": "changeOwner",
      "outputs": [],
      "payable": false,
      "stateMutability": "nonpayable",
      "type": "function"
    },
    {
      "constant": false,
      "inputs": [
        {
          "name": "completed",
          "type": "uint256"
        }
      ],
      "name": "setCompleted",
      "outputs": [],
      "payable": false,
      "stateMutability": "nonpayable",
      "type": "function"
    },
    {
      "inputs": [
        {
          "name": "_daiAddress",
          "type": "address"
        }
      ],
      "payable": false,
      "stateMutability": "nonpayable",
      "type": "constructor"
    },
    {
      "payable": true,
      "stateMutability": "payable",
      "type": "fallback"
    },
    {
      "constant": true,
      "inputs": [
        {
          "name": "_game",
          "type": "uint256"
        }
      ],
      "name": "getLastResult",
      "outputs": [
        {
          "name": "_lastResult",
          "type": "uint256"
        }
      ],
      "payable": false,
      "stateMutability": "view",
      "type": "function"
    },
    {
      "constant": true,
      "inputs": [
        {
          "name": "_amount",
          "type": "uint256"
        },
        {
          "name": "_winMultiply",
          "type": "uint256"
        }
      ],
      "name": "checkPercent",
      "outputs": [
        {
          "name": "_tantpercent",
          "type": "uint256"
        }
      ],
      "payable": false,
      "stateMutability": "view",
      "type": "function"
    },
    {
      "constant": false,
      "inputs": [],
      "name": "addUser",
      "outputs": [],
      "payable": false,
      "stateMutability": "nonpayable",
      "type": "function"
    },
    {
      "constant": false,
      "inputs": [
        {
          "name": "_help",
          "type": "uint256"
        }
      ],
      "name": "random",
      "outputs": [
        {
          "name": "_result",
          "type": "uint256"
        }
      ],
      "payable": false,
      "stateMutability": "nonpayable",
      "type": "function"
    },
    {
      "constant": false,
      "inputs": [],
      "name": "rulette",
      "outputs": [],
      "payable": false,
      "stateMutability": "nonpayable",
      "type": "function"
    },
    {
      "constant": false,
      "inputs": [
        {
          "name": "_game",
          "type": "uint256"
        },
        {
          "name": "_select",
          "type": "uint256"
        },
        {
          "name": "_amount",
          "type": "uint256"
        }
      ],
      "name": "randomBet2",
      "outputs": [],
      "payable": false,
      "stateMutability": "nonpayable",
      "type": "function"
    },
    {
      "constant": false,
      "inputs": [
        {
          "name": "_game",
          "type": "uint256"
        },
        {
          "name": "_select",
          "type": "uint256"
        },
        {
          "name": "_amount",
          "type": "uint256"
        }
      ],
      "name": "randomBet3",
      "outputs": [],
      "payable": false,
      "stateMutability": "nonpayable",
      "type": "function"
    },
    {
      "constant": false,
      "inputs": [
        {
          "name": "_game",
          "type": "uint256"
        },
        {
          "name": "_select",
          "type": "uint256"
        },
        {
          "name": "_amount",
          "type": "uint256"
        }
      ],
      "name": "randomBet5",
      "outputs": [],
      "payable": false,
      "stateMutability": "nonpayable",
      "type": "function"
    },
    {
      "constant": false,
      "inputs": [
        {
          "name": "_amount",
          "type": "uint256"
        },
        {
          "name": "_winMultiply",
          "type": "uint256"
        },
        {
          "name": "_game",
          "type": "uint256"
        }
      ],
      "name": "crazyRulette",
      "outputs": [],
      "payable": false,
      "stateMutability": "nonpayable",
      "type": "function"
    },
    {
      "constant": false,
      "inputs": [],
      "name": "takeBenefits",
      "outputs": [],
      "payable": false,
      "stateMutability": "nonpayable",
      "type": "function"
    },
    {
      "constant": false,
      "inputs": [
        {
          "name": "_newOwnerAddres",
          "type": "address"
        }
      ],
      "name": "newOwner",
      "outputs": [],
      "payable": false,
      "stateMutability": "nonpayable",
      "type": "function"
    },
    {
      "constant": false,
      "inputs": [
        {
          "name": "_newMaxId",
          "type": "uint256"
        },
        {
          "name": "_newMaxWinMult",
          "type": "uint256"
        }
      ],
      "name": "changeParams",
      "outputs": [],
      "payable": false,
      "stateMutability": "nonpayable",
      "type": "function"
    },
    {
      "constant": true,
      "inputs": [],
      "name": "getParams",
      "outputs": [
        {
          "name": "_maxId",
          "type": "uint256"
        },
        {
          "name": "_MaxWinMult",
          "type": "uint256"
        }
      ],
      "payable": false,
      "stateMutability": "view",
      "type": "function"
    }
  ],
  "bytecode": "0x6080604052670de0b6b3a764000060035534801561001c57600080fd5b506040516020806200520c8339810180604052602081101561003d57600080fd5b8101908080519060200190929190505050336000806101000a81548173ffffffffffffffffffffffffffffffffffffffff021916908373ffffffffffffffffffffffffffffffffffffffff16021790555080600260006101000a81548173ffffffffffffffffffffffffffffffffffffffff021916908373ffffffffffffffffffffffffffffffffffffffff1602179055506000600481905550600580819055505061511d80620000ef6000396000f3fe6080604052600436106100f0576000357c0100000000000000000000000000000000000000000000000000000000900463ffffffff168062c23892146100f25780631676d1d01461010957806318e533d2146101585780631f2dc471146101a757806326837dfb146101ec57806343430bc81461023b578063445df0ac1461028a578063455c928c146102b55780634650fe79146102cc5780635e615a6b1461031b578063859524541461034d5780638da5cb5b1461039e578063a6f9dae1146103f5578063b863bd3714610446578063c49e512d14610495578063f5ddf6df146104ac578063fdacd57614610505575b005b3480156100fe57600080fd5b50610107610540565b005b34801561011557600080fd5b506101566004803603606081101561012c57600080fd5b81019080803590602001909291908035906020019092919080359060200190929190505050611edf565b005b34801561016457600080fd5b506101a56004803603606081101561017b57600080fd5b8101908080359060200190929190803590602001909291908035906020019092919050505061256b565b005b3480156101b357600080fd5b506101ea600480360360408110156101ca57600080fd5b810190808035906020019092919080359060200190929190505050612b6a565b005b3480156101f857600080fd5b506102256004803603602081101561020f57600080fd5b8101908080359060200190929190505050612c40565b6040518082815260200191505060405180910390f35b34801561024757600080fd5b506102886004803603606081101561025e57600080fd5b81019080803590602001909291908035906020019092919080359060200190929190505050612cb9565b005b34801561029657600080fd5b5061029f613c44565b6040518082815260200191505060405180910390f35b3480156102c157600080fd5b506102ca613c4a565b005b3480156102d857600080fd5b50610319600480360360608110156102ef57600080fd5b81019080803590602001909291908035906020019092919080359060200190929190505050613d41565b005b34801561032757600080fd5b5061033061484d565b604051808381526020018281526020019250505060405180910390f35b34801561035957600080fd5b5061039c6004803603602081101561037057600080fd5b81019080803573ffffffffffffffffffffffffffffffffffffffff169060200190929190505050614922565b005b3480156103aa57600080fd5b506103b36149f2565b604051808273ffffffffffffffffffffffffffffffffffffffff1673ffffffffffffffffffffffffffffffffffffffff16815260200191505060405180910390f35b34801561040157600080fd5b506104446004803603602081101561041857600080fd5b81019080803573ffffffffffffffffffffffffffffffffffffffff169060200190929190505050614a17565b005b34801561045257600080fd5b5061047f6004803603602081101561046957600080fd5b8101908080359060200190929190505050614b1e565b6040518082815260200191505060405180910390f35b3480156104a157600080fd5b506104aa614c8d565b005b3480156104b857600080fd5b506104ef600480360360408110156104cf57600080fd5b810190808035906020019092919080359060200190929190505050615087565b6040518082815260200191505060405180910390f35b34801561051157600080fd5b5061053e6004803603602081101561052857600080fd5b81019080803590602001909291905050506150e7565b005b600354600260009054906101000a900473ffffffffffffffffffffffffffffffffffffffff1673ffffffffffffffffffffffffffffffffffffffff166370a08231336040518263ffffffff167c0100000000000000000000000000000000000000000000000000000000028152600401808273ffffffffffffffffffffffffffffffffffffffff1673ffffffffffffffffffffffffffffffffffffffff16815260200191505060206040518083038186803b1580156105fe57600080fd5b505afa158015610612573d6000803e3d6000fd5b505050506040513d602081101561062857600080fd5b8101908080519060200190929190505050101515156106af576040517f08c379a000000000000000000000000000000000000000000000000000000000815260040180806020018281038252600e8152602001807f4e6f20656e6f756768742044414900000000000000000000000000000000000081525060200191505060405180910390fd5b6106b7613c4a565b60006106c36001614b1e565b90506000809050600260009054906101000a900473ffffffffffffffffffffffffffffffffffffffff1673ffffffffffffffffffffffffffffffffffffffff166323b872dd33306003546040518463ffffffff167c0100000000000000000000000000000000000000000000000000000000028152600401808473ffffffffffffffffffffffffffffffffffffffff1673ffffffffffffffffffffffffffffffffffffffff1681526020018373ffffffffffffffffffffffffffffffffffffffff1673ffffffffffffffffffffffffffffffffffffffff1681526020018281526020019350505050602060405180830381600087803b1580156107c557600080fd5b505af11580156107d9573d6000803e3d6000fd5b505050506040513d60208110156107ef57600080fd5b8101908080519060200190929190505050506000821415610945576003549050600260009054906101000a900473ffffffffffffffffffffffffffffffffffffffff1673ffffffffffffffffffffffffffffffffffffffff166323b872dd3033846040518463ffffffff167c0100000000000000000000000000000000000000000000000000000000028152600401808473ffffffffffffffffffffffffffffffffffffffff1673ffffffffffffffffffffffffffffffffffffffff1681526020018373ffffffffffffffffffffffffffffffffffffffff1673ffffffffffffffffffffffffffffffffffffffff1681526020018281526020019350505050602060405180830381600087803b15801561090857600080fd5b505af115801561091c573d6000803e3d6000fd5b505050506040513d602081101561093257600080fd5b8101908080519060200190929190505050505b6001821415610b905767058d15e1762800009050600260009054906101000a900473ffffffffffffffffffffffffffffffffffffffff1673ffffffffffffffffffffffffffffffffffffffff1663095ea7b330836040518363ffffffff167c0100000000000000000000000000000000000000000000000000000000028152600401808373ffffffffffffffffffffffffffffffffffffffff1673ffffffffffffffffffffffffffffffffffffffff16815260200182815260200192505050602060405180830381600087803b158015610a1e57600080fd5b505af1158015610a32573d6000803e3d6000fd5b505050506040513d6020811015610a4857600080fd5b810190808051906020019092919050505050600260009054906101000a900473ffffffffffffffffffffffffffffffffffffffff1673ffffffffffffffffffffffffffffffffffffffff166323b872dd3033846040518463ffffffff167c0100000000000000000000000000000000000000000000000000000000028152600401808473ffffffffffffffffffffffffffffffffffffffff1673ffffffffffffffffffffffffffffffffffffffff1681526020018373ffffffffffffffffffffffffffffffffffffffff1673ffffffffffffffffffffffffffffffffffffffff1681526020018281526020019350505050602060405180830381600087803b158015610b5357600080fd5b505af1158015610b67573d6000803e3d6000fd5b505050506040513d6020811015610b7d57600080fd5b8101908080519060200190929190505050505b6002821415610ddb576702c68af0bb1400009050600260009054906101000a900473ffffffffffffffffffffffffffffffffffffffff1673ffffffffffffffffffffffffffffffffffffffff1663095ea7b330836040518363ffffffff167c0100000000000000000000000000000000000000000000000000000000028152600401808373ffffffffffffffffffffffffffffffffffffffff1673ffffffffffffffffffffffffffffffffffffffff16815260200182815260200192505050602060405180830381600087803b158015610c6957600080fd5b505af1158015610c7d573d6000803e3d6000fd5b505050506040513d6020811015610c9357600080fd5b810190808051906020019092919050505050600260009054906101000a900473ffffffffffffffffffffffffffffffffffffffff1673ffffffffffffffffffffffffffffffffffffffff166323b872dd3033846040518463ffffffff167c0100000000000000000000000000000000000000000000000000000000028152600401808473ffffffffffffffffffffffffffffffffffffffff1673ffffffffffffffffffffffffffffffffffffffff1681526020018373ffffffffffffffffffffffffffffffffffffffff1673ffffffffffffffffffffffffffffffffffffffff1681526020018281526020019350505050602060405180830381600087803b158015610d9e57600080fd5b505af1158015610db2573d6000803e3d6000fd5b505050506040513d6020811015610dc857600080fd5b8101908080519060200190929190505050505b600382141561102657670905438e600100009050600260009054906101000a900473ffffffffffffffffffffffffffffffffffffffff1673ffffffffffffffffffffffffffffffffffffffff1663095ea7b330836040518363ffffffff167c0100000000000000000000000000000000000000000000000000000000028152600401808373ffffffffffffffffffffffffffffffffffffffff1673ffffffffffffffffffffffffffffffffffffffff16815260200182815260200192505050602060405180830381600087803b158015610eb457600080fd5b505af1158015610ec8573d6000803e3d6000fd5b505050506040513d6020811015610ede57600080fd5b810190808051906020019092919050505050600260009054906101000a900473ffffffffffffffffffffffffffffffffffffffff1673ffffffffffffffffffffffffffffffffffffffff166323b872dd3033846040518463ffffffff167c0100000000000000000000000000000000000000000000000000000000028152600401808473ffffffffffffffffffffffffffffffffffffffff1673ffffffffffffffffffffffffffffffffffffffff1681526020018373ffffffffffffffffffffffffffffffffffffffff1673ffffffffffffffffffffffffffffffffffffffff1681526020018281526020019350505050602060405180830381600087803b158015610fe957600080fd5b505af1158015610ffd573d6000803e3d6000fd5b505050506040513d602081101561101357600080fd5b8101908080519060200190929190505050505b60048214156112715767063eb89da4ed00009050600260009054906101000a900473ffffffffffffffffffffffffffffffffffffffff1673ffffffffffffffffffffffffffffffffffffffff1663095ea7b330836040518363ffffffff167c0100000000000000000000000000000000000000000000000000000000028152600401808373ffffffffffffffffffffffffffffffffffffffff1673ffffffffffffffffffffffffffffffffffffffff16815260200182815260200192505050602060405180830381600087803b1580156110ff57600080fd5b505af1158015611113573d6000803e3d6000fd5b505050506040513d602081101561112957600080fd5b810190808051906020019092919050505050600260009054906101000a900473ffffffffffffffffffffffffffffffffffffffff1673ffffffffffffffffffffffffffffffffffffffff166323b872dd3033846040518463ffffffff167c0100000000000000000000000000000000000000000000000000000000028152600401808473ffffffffffffffffffffffffffffffffffffffff1673ffffffffffffffffffffffffffffffffffffffff1681526020018373ffffffffffffffffffffffffffffffffffffffff1673ffffffffffffffffffffffffffffffffffffffff1681526020018281526020019350505050602060405180830381600087803b15801561123457600080fd5b505af1158015611248573d6000803e3d6000fd5b505050506040513d602081101561125e57600080fd5b8101908080519060200190929190505050505b60058214156114bc57671bc16d674ec800009050600260009054906101000a900473ffffffffffffffffffffffffffffffffffffffff1673ffffffffffffffffffffffffffffffffffffffff1663095ea7b330836040518363ffffffff167c0100000000000000000000000000000000000000000000000000000000028152600401808373ffffffffffffffffffffffffffffffffffffffff1673ffffffffffffffffffffffffffffffffffffffff16815260200182815260200192505050602060405180830381600087803b15801561134a57600080fd5b505af115801561135e573d6000803e3d6000fd5b505050506040513d602081101561137457600080fd5b810190808051906020019092919050505050600260009054906101000a900473ffffffffffffffffffffffffffffffffffffffff1673ffffffffffffffffffffffffffffffffffffffff166323b872dd3033846040518463ffffffff167c0100000000000000000000000000000000000000000000000000000000028152600401808473ffffffffffffffffffffffffffffffffffffffff1673ffffffffffffffffffffffffffffffffffffffff1681526020018373ffffffffffffffffffffffffffffffffffffffff1673ffffffffffffffffffffffffffffffffffffffff1681526020018281526020019350505050602060405180830381600087803b15801561147f57600080fd5b505af1158015611493573d6000803e3d6000fd5b505050506040513d60208110156114a957600080fd5b8101908080519060200190929190505050505b600682141561170757670b1a2bc2ec5000009050600260009054906101000a900473ffffffffffffffffffffffffffffffffffffffff1673ffffffffffffffffffffffffffffffffffffffff1663095ea7b330836040518363ffffffff167c0100000000000000000000000000000000000000000000000000000000028152600401808373ffffffffffffffffffffffffffffffffffffffff1673ffffffffffffffffffffffffffffffffffffffff16815260200182815260200192505050602060405180830381600087803b15801561159557600080fd5b505af11580156115a9573d6000803e3d6000fd5b505050506040513d60208110156115bf57600080fd5b810190808051906020019092919050505050600260009054906101000a900473ffffffffffffffffffffffffffffffffffffffff1673ffffffffffffffffffffffffffffffffffffffff166323b872dd3033846040518463ffffffff167c0100000000000000000000000000000000000000000000000000000000028152600401808473ffffffffffffffffffffffffffffffffffffffff1673ffffffffffffffffffffffffffffffffffffffff1681526020018373ffffffffffffffffffffffffffffffffffffffff1673ffffffffffffffffffffffffffffffffffffffff1681526020018281526020019350505050602060405180830381600087803b1580156116ca57600080fd5b505af11580156116de573d6000803e3d6000fd5b505050506040513d60208110156116f457600080fd5b8101908080519060200190929190505050505b6007821415611952576702c68af0bb1400009050600260009054906101000a900473ffffffffffffffffffffffffffffffffffffffff1673ffffffffffffffffffffffffffffffffffffffff1663095ea7b330836040518363ffffffff167c0100000000000000000000000000000000000000000000000000000000028152600401808373ffffffffffffffffffffffffffffffffffffffff1673ffffffffffffffffffffffffffffffffffffffff16815260200182815260200192505050602060405180830381600087803b1580156117e057600080fd5b505af11580156117f4573d6000803e3d6000fd5b505050506040513d602081101561180a57600080fd5b810190808051906020019092919050505050600260009054906101000a900473ffffffffffffffffffffffffffffffffffffffff1673ffffffffffffffffffffffffffffffffffffffff166323b872dd3033846040518463ffffffff167c0100000000000000000000000000000000000000000000000000000000028152600401808473ffffffffffffffffffffffffffffffffffffffff1673ffffffffffffffffffffffffffffffffffffffff1681526020018373ffffffffffffffffffffffffffffffffffffffff1673ffffffffffffffffffffffffffffffffffffffff1681526020018281526020019350505050602060405180830381600087803b15801561191557600080fd5b505af1158015611929573d6000803e3d6000fd5b505050506040513d602081101561193f57600080fd5b8101908080519060200190929190505050505b6008821415611b9d57671bc16d674ec800009050600260009054906101000a900473ffffffffffffffffffffffffffffffffffffffff1673ffffffffffffffffffffffffffffffffffffffff1663095ea7b330836040518363ffffffff167c0100000000000000000000000000000000000000000000000000000000028152600401808373ffffffffffffffffffffffffffffffffffffffff1673ffffffffffffffffffffffffffffffffffffffff16815260200182815260200192505050602060405180830381600087803b158015611a2b57600080fd5b505af1158015611a3f573d6000803e3d6000fd5b505050506040513d6020811015611a5557600080fd5b810190808051906020019092919050505050600260009054906101000a900473ffffffffffffffffffffffffffffffffffffffff1673ffffffffffffffffffffffffffffffffffffffff166323b872dd3033846040518463ffffffff167c0100000000000000000000000000000000000000000000000000000000028152600401808473ffffffffffffffffffffffffffffffffffffffff1673ffffffffffffffffffffffffffffffffffffffff1681526020018373ffffffffffffffffffffffffffffffffffffffff1673ffffffffffffffffffffffffffffffffffffffff1681526020018281526020019350505050602060405180830381600087803b158015611b6057600080fd5b505af1158015611b74573d6000803e3d6000fd5b505050506040513d6020811015611b8a57600080fd5b8101908080519060200190929190505050505b6009821415611de8576706f05b59d3b200009050600260009054906101000a900473ffffffffffffffffffffffffffffffffffffffff1673ffffffffffffffffffffffffffffffffffffffff1663095ea7b330836040518363ffffffff167c0100000000000000000000000000000000000000000000000000000000028152600401808373ffffffffffffffffffffffffffffffffffffffff1673ffffffffffffffffffffffffffffffffffffffff16815260200182815260200192505050602060405180830381600087803b158015611c7657600080fd5b505af1158015611c8a573d6000803e3d6000fd5b505050506040513d6020811015611ca057600080fd5b810190808051906020019092919050505050600260009054906101000a900473ffffffffffffffffffffffffffffffffffffffff1673ffffffffffffffffffffffffffffffffffffffff166323b872dd3033846040518463ffffffff167c0100000000000000000000000000000000000000000000000000000000028152600401808473ffffffffffffffffffffffffffffffffffffffff1673ffffffffffffffffffffffffffffffffffffffff1681526020018373ffffffffffffffffffffffffffffffffffffffff1673ffffffffffffffffffffffffffffffffffffffff1681526020018281526020019350505050602060405180830381600087803b158015611dab57600080fd5b505af1158015611dbf573d6000803e3d6000fd5b505050506040513d6020811015611dd557600080fd5b8101908080519060200190929190505050505b806006600760003373ffffffffffffffffffffffffffffffffffffffff1673ffffffffffffffffffffffffffffffffffffffff16815260200190815260200160002054815481101515611e3757fe5b906000526020600020016001815481101515611e4f57fe5b9060005260206000200181905550806006600760003373ffffffffffffffffffffffffffffffffffffffff1673ffffffffffffffffffffffffffffffffffffffff16815260200190815260200160002054815481101515611eac57fe5b906000526020600020016000815481101515611ec457fe5b90600052602060002001600082825401925050819055505050565b82600260009054906101000a900473ffffffffffffffffffffffffffffffffffffffff1673ffffffffffffffffffffffffffffffffffffffff166370a08231336040518263ffffffff167c0100000000000000000000000000000000000000000000000000000000028152600401808273ffffffffffffffffffffffffffffffffffffffff1673ffffffffffffffffffffffffffffffffffffffff16815260200191505060206040518083038186803b158015611f9b57600080fd5b505afa158015611faf573d6000803e3d6000fd5b505050506040513d6020811015611fc557600080fd5b81019080805190602001909291905050501015151561204c576040517f08c379a000000000000000000000000000000000000000000000000000000000815260040180806020018281038252600f8152602001807f4e6f7420656e6f7567687420444149000000000000000000000000000000000081525060200191505060405180910390fd5b60008311801561206157506003546005028311155b15156120d5576040517f08c379a00000000000000000000000000000000000000000000000000000000081526004018080602001828103825260178152602001807f4e6f74206265747765656e203020616e6420352044414900000000000000000081525060200191505060405180910390fd5b600554821115151561214f576040517f08c379a000000000000000000000000000000000000000000000000000000000815260040180806020018281038252601b8152602001807f4e6f7420616c6c6f7765642074686174206d756c7469706c696572000000000081525060200191505060405180910390fd5b600260009054906101000a900473ffffffffffffffffffffffffffffffffffffffff1673ffffffffffffffffffffffffffffffffffffffff166323b872dd3330866040518463ffffffff167c0100000000000000000000000000000000000000000000000000000000028152600401808473ffffffffffffffffffffffffffffffffffffffff1673ffffffffffffffffffffffffffffffffffffffff1681526020018373ffffffffffffffffffffffffffffffffffffffff1673ffffffffffffffffffffffffffffffffffffffff1681526020018281526020019350505050602060405180830381600087803b15801561224857600080fd5b505af115801561225c573d6000803e3d6000fd5b505050506040513d602081101561227257600080fd5b81019080805190602001909291905050505060006003546122936002614b1e565b02905060006001905060006122a88686615087565b905080831115156124ef578486029150600260009054906101000a900473ffffffffffffffffffffffffffffffffffffffff1673ffffffffffffffffffffffffffffffffffffffff1663095ea7b330846040518363ffffffff167c0100000000000000000000000000000000000000000000000000000000028152600401808373ffffffffffffffffffffffffffffffffffffffff1673ffffffffffffffffffffffffffffffffffffffff16815260200182815260200192505050602060405180830381600087803b15801561237d57600080fd5b505af1158015612391573d6000803e3d6000fd5b505050506040513d60208110156123a757600080fd5b810190808051906020019092919050505050600260009054906101000a900473ffffffffffffffffffffffffffffffffffffffff1673ffffffffffffffffffffffffffffffffffffffff166323b872dd3033856040518463ffffffff167c0100000000000000000000000000000000000000000000000000000000028152600401808473ffffffffffffffffffffffffffffffffffffffff1673ffffffffffffffffffffffffffffffffffffffff1681526020018373ffffffffffffffffffffffffffffffffffffffff1673ffffffffffffffffffffffffffffffffffffffff1681526020018281526020019350505050602060405180830381600087803b1580156124b257600080fd5b505af11580156124c6573d6000803e3d6000fd5b505050506040513d60208110156124dc57600080fd5b8101908080519060200190929190505050505b816006600760003373ffffffffffffffffffffffffffffffffffffffff1673ffffffffffffffffffffffffffffffffffffffff1681526020019081526020016000205481548110151561253e57fe5b906000526020600020018581548110151561255557fe5b9060005260206000200181905550505050505050565b80600260009054906101000a900473ffffffffffffffffffffffffffffffffffffffff1673ffffffffffffffffffffffffffffffffffffffff166370a08231336040518263ffffffff167c0100000000000000000000000000000000000000000000000000000000028152600401808273ffffffffffffffffffffffffffffffffffffffff1673ffffffffffffffffffffffffffffffffffffffff16815260200191505060206040518083038186803b15801561262757600080fd5b505afa15801561263b573d6000803e3d6000fd5b505050506040513d602081101561265157600080fd5b8101908080519060200190929190505050101515156126d8576040517f08c379a000000000000000000000000000000000000000000000000000000000815260040180806020018281038252600f8152602001807f4e6f7420656e6f7567687420444149000000000000000000000000000000000081525060200191505060405180910390fd5b6000811180156126ed57506003546005028111155b1515612761576040517f08c379a00000000000000000000000000000000000000000000000000000000081526004018080602001828103825260178152602001807f4e6f74206265747765656e203020616e6420352044414900000000000000000081525060200191505060405180910390fd5b600260009054906101000a900473ffffffffffffffffffffffffffffffffffffffff1673ffffffffffffffffffffffffffffffffffffffff166323b872dd3330846040518463ffffffff167c0100000000000000000000000000000000000000000000000000000000028152600401808473ffffffffffffffffffffffffffffffffffffffff1673ffffffffffffffffffffffffffffffffffffffff1681526020018373ffffffffffffffffffffffffffffffffffffffff1673ffffffffffffffffffffffffffffffffffffffff1681526020018281526020019350505050602060405180830381600087803b15801561285a57600080fd5b505af115801561286e573d6000803e3d6000fd5b505050506040513d602081101561288457600080fd5b81019080805190602001909291905050505060006128a26001614b1e565b905060006001905083821415612aef57600583029050600260009054906101000a900473ffffffffffffffffffffffffffffffffffffffff1673ffffffffffffffffffffffffffffffffffffffff1663095ea7b330836040518363ffffffff167c0100000000000000000000000000000000000000000000000000000000028152600401808373ffffffffffffffffffffffffffffffffffffffff1673ffffffffffffffffffffffffffffffffffffffff16815260200182815260200192505050602060405180830381600087803b15801561297d57600080fd5b505af1158015612991573d6000803e3d6000fd5b505050506040513d60208110156129a757600080fd5b810190808051906020019092919050505050600260009054906101000a900473ffffffffffffffffffffffffffffffffffffffff1673ffffffffffffffffffffffffffffffffffffffff166323b872dd3033846040518463ffffffff167c0100000000000000000000000000000000000000000000000000000000028152600401808473ffffffffffffffffffffffffffffffffffffffff1673ffffffffffffffffffffffffffffffffffffffff1681526020018373ffffffffffffffffffffffffffffffffffffffff1673ffffffffffffffffffffffffffffffffffffffff1681526020018281526020019350505050602060405180830381600087803b158015612ab257600080fd5b505af1158015612ac6573d6000803e3d6000fd5b505050506040513d6020811015612adc57600080fd5b8101908080519060200190929190505050505b806006600760003373ffffffffffffffffffffffffffffffffffffffff1673ffffffffffffffffffffffffffffffffffffffff16815260200190815260200160002054815481101515612b3e57fe5b9060005260206000200186815481101515612b5557fe5b90600052602060002001819055505050505050565b6000809054906101000a900473ffffffffffffffffffffffffffffffffffffffff1673ffffffffffffffffffffffffffffffffffffffff163373ffffffffffffffffffffffffffffffffffffffff16141515612c2e576040517f08c379a00000000000000000000000000000000000000000000000000000000081526004018080602001828103825260098152602001807f4e6f74204f776e6572000000000000000000000000000000000000000000000081525060200191505060405180910390fd5b81600481905550806005819055505050565b60006006600760003373ffffffffffffffffffffffffffffffffffffffff1673ffffffffffffffffffffffffffffffffffffffff16815260200190815260200160002054815481101515612c9057fe5b9060005260206000200182815481101515612ca757fe5b90600052602060002001549050919050565b80600260009054906101000a900473ffffffffffffffffffffffffffffffffffffffff1673ffffffffffffffffffffffffffffffffffffffff166370a08231336040518263ffffffff167c0100000000000000000000000000000000000000000000000000000000028152600401808273ffffffffffffffffffffffffffffffffffffffff1673ffffffffffffffffffffffffffffffffffffffff16815260200191505060206040518083038186803b158015612d7557600080fd5b505afa158015612d89573d6000803e3d6000fd5b505050506040513d6020811015612d9f57600080fd5b810190808051906020019092919050505010151515612e26576040517f08c379a000000000000000000000000000000000000000000000000000000000815260040180806020018281038252600f8152602001807f4e6f7420656e6f7567687420444149000000000000000000000000000000000081525060200191505060405180910390fd5b600081118015612e3b57506003546005028111155b1515612eaf576040517f08c379a00000000000000000000000000000000000000000000000000000000081526004018080602001828103825260178152602001807f4e6f74206265747765656e203020616e6420352044414900000000000000000081525060200191505060405180910390fd5b600260009054906101000a900473ffffffffffffffffffffffffffffffffffffffff1673ffffffffffffffffffffffffffffffffffffffff166323b872dd3330846040518463ffffffff167c0100000000000000000000000000000000000000000000000000000000028152600401808473ffffffffffffffffffffffffffffffffffffffff1673ffffffffffffffffffffffffffffffffffffffff1681526020018373ffffffffffffffffffffffffffffffffffffffff1673ffffffffffffffffffffffffffffffffffffffff1681526020018281526020019350505050602060405180830381600087803b158015612fa857600080fd5b505af1158015612fbc573d6000803e3d6000fd5b505050506040513d6020811015612fd257600080fd5b8101908080519060200190929190505050506000612ff06001614b1e565b905060006001905081600014806130075750600182145b80156130135750600184145b1561325557600383029050600260009054906101000a900473ffffffffffffffffffffffffffffffffffffffff1673ffffffffffffffffffffffffffffffffffffffff1663095ea7b330836040518363ffffffff167c0100000000000000000000000000000000000000000000000000000000028152600401808373ffffffffffffffffffffffffffffffffffffffff1673ffffffffffffffffffffffffffffffffffffffff16815260200182815260200192505050602060405180830381600087803b1580156130e357600080fd5b505af11580156130f7573d6000803e3d6000fd5b505050506040513d602081101561310d57600080fd5b810190808051906020019092919050505050600260009054906101000a900473ffffffffffffffffffffffffffffffffffffffff1673ffffffffffffffffffffffffffffffffffffffff166323b872dd3033846040518463ffffffff167c0100000000000000000000000000000000000000000000000000000000028152600401808473ffffffffffffffffffffffffffffffffffffffff1673ffffffffffffffffffffffffffffffffffffffff1681526020018373ffffffffffffffffffffffffffffffffffffffff1673ffffffffffffffffffffffffffffffffffffffff1681526020018281526020019350505050602060405180830381600087803b15801561321857600080fd5b505af115801561322c573d6000803e3d6000fd5b505050506040513d602081101561324257600080fd5b8101908080519060200190929190505050505b81600214806132645750600382145b80156132705750600284145b156134b257600383029050600260009054906101000a900473ffffffffffffffffffffffffffffffffffffffff1673ffffffffffffffffffffffffffffffffffffffff1663095ea7b330836040518363ffffffff167c0100000000000000000000000000000000000000000000000000000000028152600401808373ffffffffffffffffffffffffffffffffffffffff1673ffffffffffffffffffffffffffffffffffffffff16815260200182815260200192505050602060405180830381600087803b15801561334057600080fd5b505af1158015613354573d6000803e3d6000fd5b505050506040513d602081101561336a57600080fd5b810190808051906020019092919050505050600260009054906101000a900473ffffffffffffffffffffffffffffffffffffffff1673ffffffffffffffffffffffffffffffffffffffff166323b872dd3033846040518463ffffffff167c0100000000000000000000000000000000000000000000000000000000028152600401808473ffffffffffffffffffffffffffffffffffffffff1673ffffffffffffffffffffffffffffffffffffffff1681526020018373ffffffffffffffffffffffffffffffffffffffff1673ffffffffffffffffffffffffffffffffffffffff1681526020018281526020019350505050602060405180830381600087803b15801561347557600080fd5b505af1158015613489573d6000803e3d6000fd5b505050506040513d602081101561349f57600080fd5b8101908080519060200190929190505050505b81600414806134c15750600582145b80156134cd5750600384145b1561370f57600383029050600260009054906101000a900473ffffffffffffffffffffffffffffffffffffffff1673ffffffffffffffffffffffffffffffffffffffff1663095ea7b330836040518363ffffffff167c0100000000000000000000000000000000000000000000000000000000028152600401808373ffffffffffffffffffffffffffffffffffffffff1673ffffffffffffffffffffffffffffffffffffffff16815260200182815260200192505050602060405180830381600087803b15801561359d57600080fd5b505af11580156135b1573d6000803e3d6000fd5b505050506040513d60208110156135c757600080fd5b810190808051906020019092919050505050600260009054906101000a900473ffffffffffffffffffffffffffffffffffffffff1673ffffffffffffffffffffffffffffffffffffffff166323b872dd3033846040518463ffffffff167c0100000000000000000000000000000000000000000000000000000000028152600401808473ffffffffffffffffffffffffffffffffffffffff1673ffffffffffffffffffffffffffffffffffffffff1681526020018373ffffffffffffffffffffffffffffffffffffffff1673ffffffffffffffffffffffffffffffffffffffff1681526020018281526020019350505050602060405180830381600087803b1580156136d257600080fd5b505af11580156136e6573d6000803e3d6000fd5b505050506040513d60208110156136fc57600080fd5b8101908080519060200190929190505050505b816006148061371e5750600782145b801561372a5750600484145b1561396c57600383029050600260009054906101000a900473ffffffffffffffffffffffffffffffffffffffff1673ffffffffffffffffffffffffffffffffffffffff1663095ea7b330836040518363ffffffff167c0100000000000000000000000000000000000000000000000000000000028152600401808373ffffffffffffffffffffffffffffffffffffffff1673ffffffffffffffffffffffffffffffffffffffff16815260200182815260200192505050602060405180830381600087803b1580156137fa57600080fd5b505af115801561380e573d6000803e3d6000fd5b505050506040513d602081101561382457600080fd5b810190808051906020019092919050505050600260009054906101000a900473ffffffffffffffffffffffffffffffffffffffff1673ffffffffffffffffffffffffffffffffffffffff166323b872dd3033846040518463ffffffff167c0100000000000000000000000000000000000000000000000000000000028152600401808473ffffffffffffffffffffffffffffffffffffffff1673ffffffffffffffffffffffffffffffffffffffff1681526020018373ffffffffffffffffffffffffffffffffffffffff1673ffffffffffffffffffffffffffffffffffffffff1681526020018281526020019350505050602060405180830381600087803b15801561392f57600080fd5b505af1158015613943573d6000803e3d6000fd5b505050506040513d602081101561395957600080fd5b8101908080519060200190929190505050505b816008148061397b5750600982145b80156139875750600584145b15613bc957600383029050600260009054906101000a900473ffffffffffffffffffffffffffffffffffffffff1673ffffffffffffffffffffffffffffffffffffffff1663095ea7b330836040518363ffffffff167c0100000000000000000000000000000000000000000000000000000000028152600401808373ffffffffffffffffffffffffffffffffffffffff1673ffffffffffffffffffffffffffffffffffffffff16815260200182815260200192505050602060405180830381600087803b158015613a5757600080fd5b505af1158015613a6b573d6000803e3d6000fd5b505050506040513d6020811015613a8157600080fd5b810190808051906020019092919050505050600260009054906101000a900473ffffffffffffffffffffffffffffffffffffffff1673ffffffffffffffffffffffffffffffffffffffff166323b872dd3033846040518463ffffffff167c0100000000000000000000000000000000000000000000000000000000028152600401808473ffffffffffffffffffffffffffffffffffffffff1673ffffffffffffffffffffffffffffffffffffffff1681526020018373ffffffffffffffffffffffffffffffffffffffff1673ffffffffffffffffffffffffffffffffffffffff1681526020018281526020019350505050602060405180830381600087803b158015613b8c57600080fd5b505af1158015613ba0573d6000803e3d6000fd5b505050506040513d6020811015613bb657600080fd5b8101908080519060200190929190505050505b806006600760003373ffffffffffffffffffffffffffffffffffffffff1673ffffffffffffffffffffffffffffffffffffffff16815260200190815260200160002054815481101515613c1857fe5b9060005260206000200186815481101515613c2f57fe5b90600052602060002001819055505050505050565b60015481565b6000600760003373ffffffffffffffffffffffffffffffffffffffff1673ffffffffffffffffffffffffffffffffffffffff168152602001908152602001600020541415613d3f57600454600760003373ffffffffffffffffffffffffffffffffffffffff1673ffffffffffffffffffffffffffffffffffffffff168152602001908152602001600020819055503360086000600454815260200190815260200160002060006101000a81548173ffffffffffffffffffffffffffffffffffffffff021916908373ffffffffffffffffffffffffffffffffffffffff1602179055506004600081548092919060010191905055505b565b80600260009054906101000a900473ffffffffffffffffffffffffffffffffffffffff1673ffffffffffffffffffffffffffffffffffffffff166370a08231336040518263ffffffff167c0100000000000000000000000000000000000000000000000000000000028152600401808273ffffffffffffffffffffffffffffffffffffffff1673ffffffffffffffffffffffffffffffffffffffff16815260200191505060206040518083038186803b158015613dfd57600080fd5b505afa158015613e11573d6000803e3d6000fd5b505050506040513d6020811015613e2757600080fd5b810190808051906020019092919050505010151515613eae576040517f08c379a000000000000000000000000000000000000000000000000000000000815260040180806020018281038252600f8152602001807f4e6f7420656e6f7567687420444149000000000000000000000000000000000081525060200191505060405180910390fd5b600081118015613ec357506003546005028111155b1515613f37576040517f08c379a00000000000000000000000000000000000000000000000000000000081526004018080602001828103825260178152602001807f4e6f74206265747765656e203020616e6420352044414900000000000000000081525060200191505060405180910390fd5b600260009054906101000a900473ffffffffffffffffffffffffffffffffffffffff1673ffffffffffffffffffffffffffffffffffffffff166323b872dd3330846040518463ffffffff167c0100000000000000000000000000000000000000000000000000000000028152600401808473ffffffffffffffffffffffffffffffffffffffff1673ffffffffffffffffffffffffffffffffffffffff1681526020018373ffffffffffffffffffffffffffffffffffffffff1673ffffffffffffffffffffffffffffffffffffffff1681526020018281526020019350505050602060405180830381600087803b15801561403057600080fd5b505af1158015614044573d6000803e3d6000fd5b505050506040513d602081101561405a57600080fd5b81019080805190602001909291905050505060006140786001614b1e565b905060006001905060008214156140b2576140936002614b1e565b9150600a80838115156140a257fe5b0683038115156140ae57fe5b0491505b816001111580156140c4575060038211155b80156140d05750600184145b1561431257600283029050600260009054906101000a900473ffffffffffffffffffffffffffffffffffffffff1673ffffffffffffffffffffffffffffffffffffffff1663095ea7b330836040518363ffffffff167c0100000000000000000000000000000000000000000000000000000000028152600401808373ffffffffffffffffffffffffffffffffffffffff1673ffffffffffffffffffffffffffffffffffffffff16815260200182815260200192505050602060405180830381600087803b1580156141a057600080fd5b505af11580156141b4573d6000803e3d6000fd5b505050506040513d60208110156141ca57600080fd5b810190808051906020019092919050505050600260009054906101000a900473ffffffffffffffffffffffffffffffffffffffff1673ffffffffffffffffffffffffffffffffffffffff166323b872dd3033846040518463ffffffff167c0100000000000000000000000000000000000000000000000000000000028152600401808473ffffffffffffffffffffffffffffffffffffffff1673ffffffffffffffffffffffffffffffffffffffff1681526020018373ffffffffffffffffffffffffffffffffffffffff1673ffffffffffffffffffffffffffffffffffffffff1681526020018281526020019350505050602060405180830381600087803b1580156142d557600080fd5b505af11580156142e9573d6000803e3d6000fd5b505050506040513d60208110156142ff57600080fd5b8101908080519060200190929190505050505b81600411158015614324575060068211155b80156143305750600284145b1561457257600283029050600260009054906101000a900473ffffffffffffffffffffffffffffffffffffffff1673ffffffffffffffffffffffffffffffffffffffff1663095ea7b330836040518363ffffffff167c0100000000000000000000000000000000000000000000000000000000028152600401808373ffffffffffffffffffffffffffffffffffffffff1673ffffffffffffffffffffffffffffffffffffffff16815260200182815260200192505050602060405180830381600087803b15801561440057600080fd5b505af1158015614414573d6000803e3d6000fd5b505050506040513d602081101561442a57600080fd5b810190808051906020019092919050505050600260009054906101000a900473ffffffffffffffffffffffffffffffffffffffff1673ffffffffffffffffffffffffffffffffffffffff166323b872dd3033846040518463ffffffff167c0100000000000000000000000000000000000000000000000000000000028152600401808473ffffffffffffffffffffffffffffffffffffffff1673ffffffffffffffffffffffffffffffffffffffff1681526020018373ffffffffffffffffffffffffffffffffffffffff1673ffffffffffffffffffffffffffffffffffffffff1681526020018281526020019350505050602060405180830381600087803b15801561453557600080fd5b505af1158015614549573d6000803e3d6000fd5b505050506040513d602081101561455f57600080fd5b8101908080519060200190929190505050505b81600711158015614584575060098211155b80156145905750600384145b156147d257600283029050600260009054906101000a900473ffffffffffffffffffffffffffffffffffffffff1673ffffffffffffffffffffffffffffffffffffffff1663095ea7b330836040518363ffffffff167c0100000000000000000000000000000000000000000000000000000000028152600401808373ffffffffffffffffffffffffffffffffffffffff1673ffffffffffffffffffffffffffffffffffffffff16815260200182815260200192505050602060405180830381600087803b15801561466057600080fd5b505af1158015614674573d6000803e3d6000fd5b505050506040513d602081101561468a57600080fd5b810190808051906020019092919050505050600260009054906101000a900473ffffffffffffffffffffffffffffffffffffffff1673ffffffffffffffffffffffffffffffffffffffff166323b872dd3033846040518463ffffffff167c0100000000000000000000000000000000000000000000000000000000028152600401808473ffffffffffffffffffffffffffffffffffffffff1673ffffffffffffffffffffffffffffffffffffffff1681526020018373ffffffffffffffffffffffffffffffffffffffff1673ffffffffffffffffffffffffffffffffffffffff1681526020018281526020019350505050602060405180830381600087803b15801561479557600080fd5b505af11580156147a9573d6000803e3d6000fd5b505050506040513d60208110156147bf57600080fd5b8101908080519060200190929190505050505b806006600760003373ffffffffffffffffffffffffffffffffffffffff1673ffffffffffffffffffffffffffffffffffffffff1681526020019081526020016000205481548110151561482157fe5b906000526020600020018681548110151561483857fe5b90600052602060002001819055505050505050565b6000806000809054906101000a900473ffffffffffffffffffffffffffffffffffffffff1673ffffffffffffffffffffffffffffffffffffffff163373ffffffffffffffffffffffffffffffffffffffff16141515614914576040517f08c379a00000000000000000000000000000000000000000000000000000000081526004018080602001828103825260098152602001807f4e6f74204f776e6572000000000000000000000000000000000000000000000081525060200191505060405180910390fd5b600454600554915091509091565b6000809054906101000a900473ffffffffffffffffffffffffffffffffffffffff1673ffffffffffffffffffffffffffffffffffffffff163373ffffffffffffffffffffffffffffffffffffffff161415156149e6576040517f08c379a00000000000000000000000000000000000000000000000000000000081526004018080602001828103825260098152602001807f4e6f74204f776e6572000000000000000000000000000000000000000000000081525060200191505060405180910390fd5b6149ef81614a17565b50565b6000809054906101000a900473ffffffffffffffffffffffffffffffffffffffff1681565b6000809054906101000a900473ffffffffffffffffffffffffffffffffffffffff1673ffffffffffffffffffffffffffffffffffffffff163373ffffffffffffffffffffffffffffffffffffffff16141515614adb576040517f08c379a00000000000000000000000000000000000000000000000000000000081526004018080602001828103825260098152602001807f4e6f74204f776e6572000000000000000000000000000000000000000000000081525060200191505060405180910390fd5b806000806101000a81548173ffffffffffffffffffffffffffffffffffffffff021916908373ffffffffffffffffffffffffffffffffffffffff16021790555050565b6000614b28613c4a565b600060405160200180807f6368616f7300000000000000000000000000000000000000000000000000000081525060050190506040516020818303038152906040528051906020012060019004905060006001430340600190049050606442811515614b9057fe5b06606483811515614b9d57fe5b0602915060045482811515614bae57fe5b0691506008600083815260200190815260200160002060009054906101000a900473ffffffffffffffffffffffffffffffffffffffff1673ffffffffffffffffffffffffffffffffffffffff1691506103e882811515614c0a57fe5b066103e882811515614c1857fe5b060291506103e84173ffffffffffffffffffffffffffffffffffffffff16811515614c3f57fe5b066103e883811515614c4d57fe5b060291506001841415614c6a57600a82811515614c6657fe5b0691505b6002841415614c8357606482811515614c7f57fe5b0691505b8192505050919050565b6000809054906101000a900473ffffffffffffffffffffffffffffffffffffffff1673ffffffffffffffffffffffffffffffffffffffff163373ffffffffffffffffffffffffffffffffffffffff16141515614d51576040517f08c379a00000000000000000000000000000000000000000000000000000000081526004018080602001828103825260098152602001807f4e6f74204f776e6572000000000000000000000000000000000000000000000081525060200191505060405180910390fd5b6000809050600260009054906101000a900473ffffffffffffffffffffffffffffffffffffffff1673ffffffffffffffffffffffffffffffffffffffff166370a08231306040518263ffffffff167c0100000000000000000000000000000000000000000000000000000000028152600401808273ffffffffffffffffffffffffffffffffffffffff1673ffffffffffffffffffffffffffffffffffffffff16815260200191505060206040518083038186803b158015614e1157600080fd5b505afa158015614e25573d6000803e3d6000fd5b505050506040513d6020811015614e3b57600080fd5b81019080805190602001909291905050509050600260009054906101000a900473ffffffffffffffffffffffffffffffffffffffff1673ffffffffffffffffffffffffffffffffffffffff1663095ea7b333836040518363ffffffff167c0100000000000000000000000000000000000000000000000000000000028152600401808373ffffffffffffffffffffffffffffffffffffffff1673ffffffffffffffffffffffffffffffffffffffff16815260200182815260200192505050602060405180830381600087803b158015614f1357600080fd5b505af1158015614f27573d6000803e3d6000fd5b505050506040513d6020811015614f3d57600080fd5b810190808051906020019092919050505050600260009054906101000a900473ffffffffffffffffffffffffffffffffffffffff1673ffffffffffffffffffffffffffffffffffffffff166323b872dd3033846040518463ffffffff167c0100000000000000000000000000000000000000000000000000000000028152600401808473ffffffffffffffffffffffffffffffffffffffff1673ffffffffffffffffffffffffffffffffffffffff1681526020018373ffffffffffffffffffffffffffffffffffffffff1673ffffffffffffffffffffffffffffffffffffffff1681526020018281526020019350505050602060405180830381600087803b15801561504857600080fd5b505af115801561505c573d6000803e3d6000fd5b505050506040513d602081101561507257600080fd5b81019080805190602001909291905050505050565b6000806000808560640292508486029150600a828115156150a457fe5b069050600a8183038115156150b557fe5b049050808201915081838115156150c857fe5b069050818184038115156150d857fe5b04925082935050505092915050565b806001819055505056fea165627a7a723058202ed215724641c4ea88786f5396b5661870c78820a38f722cf034516ac95382e60029",
  "source": "pragma solidity ^0.5.0;\r\n\r\n//Basic library\r\nimport \"./Migrations.sol\";\r\nimport \"@openzeppelin/contracts/token/ERC20/IERC20.sol\";\r\n\r\n//Here start RandoChaos version 1\r\n//I hope you enjoy the game, if want to read or reuse that code you are free to go.\r\ncontract ChaotiCasino is Migrations{\r\n \t//Declaration of DAI and unity parameter\r\n\tIERC20 dai;\r\n\tuint256 unity = 10 ** 18;\r\n\tuint256 maxId;\r\n\tuint256 maxWinMult;\r\n\tuint256[][] lastResult;\r\n\t//Iniciation and fallback function\r\n\tconstructor(address _daiAddress) public{\r\n\t\tdai = IERC20(_daiAddress);\r\n\t\tmaxId = 0;\r\n\t\tmaxWinMult = 5;\r\n\t} \r\n\tfunction() external payable{}\r\n\t//User help to do random number\r\n\tmapping (address => uint256) userNum;\r\n\tmapping (uint256 => address) userAddress;\r\n\t\r\n\t//Each of the following functions are used to acces to their personal result of each game\r\n\tfunction getLastResult(uint256 _game) external view returns(uint256 _lastResult){\r\n\t\treturn(lastResult[userNum[msg.sender]][_game]);\r\n\t}\r\n\r\n\t//% of crazy rulette\r\n\tfunction checkPercent(uint256 _amount, uint256 _winMultiply) public view returns(uint256 _tantpercent){\r\n\t\tuint256 x;\r\n\t\tuint256 y;\r\n\t\tuint256 auxf;\r\n\t\tx = 100 * _amount;\r\n\t\ty = _amount * _winMultiply;\r\n\t\tauxf = y % 10;\r\n\t\tauxf = (y - auxf) / 10;\r\n\t\ty = y + auxf;\r\n\t\tauxf = x % y;\r\n\t\tx = (x - auxf) / y;\r\n\t\treturn x;\r\n\t}\r\n\t\r\n\t//Random number\r\n\tfunction addUser() public{\r\n\t\tif(userNum[msg.sender] == 0){\r\n\t\t\tuserNum[msg.sender] = maxId;\r\n\t\t\tuserAddress[maxId] = msg.sender;\r\n\t\t\tmaxId++;\r\n\t\t}\r\n\t}\r\n\tfunction random(uint256 _help) public returns(uint256 _result){\r\n\t\taddUser();\r\n\t\tuint256 x = uint256(keccak256(abi.encodePacked(\"chaos\")));\r\n\t\tuint256 blockHashNow = uint256(blockhash(block.number - 1));\r\n\t\tx = (x % 100) * (uint256(now) % 100);\r\n\t\tx = x % maxId;\r\n\t\tx = uint256(userAddress[x]);\r\n\t\tx = (blockHashNow % 1000) * (x % 1000);\r\n\t\tx = (x % 1000) * (uint256(block.coinbase) % 1000);\r\n\t\tif(_help == 1){\r\n\t\t\tx = x % 10;\r\n\t\t}\r\n\t\tif(_help == 2){\r\n\t\t\tx = x % 100;\r\n\t\t}\r\n\t\treturn (x);\r\n\t}\r\n\r\n\t//Now comes Game functions, every name has a number asociated as seen before on getLastResult\r\n\t//1 -> Rulette\r\n\t//2 -> appleDrop\r\n\t//3 -> rapeGame\r\n\t//4 -> cockfight\r\n\t//5 -> smurfDay\r\n\r\n\t//Rulette function\r\n\tfunction rulette() external{\r\n\t\trequire (dai.balanceOf(msg.sender) >= unity, \"No enought DAI\");\r\n\t\taddUser();\r\n\t\t//Creating a semi-random number\r\n\t\tuint256 x = random(1);\r\n\t\tuint256 y = 0;\r\n\t\t//Transfering 1 DAI to this contract as the payment\r\n\t\t//Approve must go first\r\n\t\tdai.transferFrom(msg.sender, address(this), unity);\r\n\t\t//Each result has a case\r\n\t\tif(x == 0){\r\n\t\t\ty = unity;\r\n\t\t\tdai.transferFrom(address(this), msg.sender, y);//Returns 1 Dai\r\n\t\t}\t\t\r\n\t\tif(x == 1){\r\n\t\t\ty = 4 * (10 ** 17);\r\n\t\t\tdai.approve(address(this), y);\r\n\t\t\tdai.transferFrom(address(this), msg.sender, y);//Returns 0.4 Dai\r\n\t\t}\r\n\t\tif(x == 2){\r\n\t\t\ty = 2 * (10 ** 17);\r\n\t\t\tdai.approve(address(this), y);\r\n\t\t\tdai.transferFrom(address(this), msg.sender, y);//Returns 0.2 Dai\r\n\t\t}\r\n\t\tif(x == 3){\r\n\t\t\ty = 65 * (10 ** 16);\r\n\t\t\tdai.approve(address(this), y);\r\n\t\t\tdai.transferFrom(address(this), msg.sender, y); //Returns 0.65 Dai\r\n\t\t}\r\n\t\tif(x == 4){\r\n\t\t\ty = 45 * (10 ** 16);\r\n\t\t\tdai.approve(address(this), y);\r\n\t\t\tdai.transferFrom(address(this), msg.sender, y);//Returns 0.45 Dai\r\n\t\t}\r\n\t\tif(x == 5){\r\n\t\t\ty = 2 * (10 ** 18);\r\n\t\t\tdai.approve(address(this), y);\r\n\t\t\tdai.transferFrom(address(this), msg.sender, y);//Returns 2 Dai\r\n\t\t}\r\n\t\tif(x == 6){\r\n\t\t\ty = 8 * (10 ** 17);\r\n\t\t\tdai.approve(address(this), y);\r\n\t\t\tdai.transferFrom(address(this), msg.sender, y); //Returns 0.8 Dai\r\n\t\t}\r\n\t\tif(x == 7){\r\n\t\t\ty = 2 * (10 ** 17);\r\n\t\t\tdai.approve(address(this), y);\r\n\t\t\tdai.transferFrom(address(this), msg.sender, y);//Returns 0.2 Dai\r\n\t\t}\r\n\t\tif(x == 8){\r\n\t\t\ty = 2 * (10 ** 18);\r\n\t\t\tdai.approve(address(this), y);\r\n\t\t\tdai.transferFrom(address(this), msg.sender, y);//Retorns 2 Dai\r\n\t\t}\r\n\t\tif(x == 9){\r\n\t\t\ty = 5 * (10 ** 17);\r\n\t\t\tdai.approve(address(this), y);\r\n\t\t\tdai.transferFrom(address(this), msg.sender, y);//Retorns 0.5 Dai\r\n\t\t}\r\n\t\tlastResult[userNum[msg.sender]][1] = y;\r\n\t\t//Bonus point\r\n\t\tlastResult[userNum[msg.sender]][0] += y;\r\n\t\t//Thanks to join our game\r\n\t}\r\n\t//Function Random Bet x2\r\n\tfunction randomBet2(uint256 _game, uint256 _select, uint256 _amount) external{\r\n\t\trequire(dai.balanceOf(msg.sender) >= _amount, \"Not enought DAI\");\r\n\t\trequire(_amount > 0 && _amount <= (5 * unity), \"Not between 0 and 5 DAI\");\r\n\t\t//Approved first, we transfer the bet from msg.sender\r\n\t\tdai.transferFrom(msg.sender, address(this), _amount);\r\n\t\t//Creating a semi-random number between 1-9\r\n\t\tuint256 x = random(1);\r\n\t\tuint256 y = 1;\r\n\t\tif(x == 0){\r\n\t\t\tx = random(2);\r\n\t\t\tx = (x - (x % 10)) / 10;\r\n\t\t}\r\n\t\t//Three possible answer. Allways return doble if correct.\r\n\t\tif(1 <= x && x <= 3 && _select == 1){\r\n\t\t\ty = _amount * 2;\r\n\t\t\tdai.approve(address(this), y);\r\n\t\t\tdai.transferFrom(address(this), msg.sender, y);\r\n\t\t}\r\n\t\tif(4 <= x && x <= 6 && _select == 2){\r\n\t\t\ty = _amount * 2;\r\n\t\t\tdai.approve(address(this), y);\r\n\t\t\tdai.transferFrom(address(this), msg.sender, y);\r\n\t\t}\r\n\t\tif(7 <= x && x <= 9 && _select == 3){\r\n\t\t\ty = _amount * 2;\r\n\t\t\tdai.approve(address(this), y);\r\n\t\t\tdai.transferFrom(address(this), msg.sender, y);\r\n\t\t}\r\n\t\tlastResult[userNum[msg.sender]][_game] = y;\r\n\t\t//Thanks to join our game\r\n\t}\r\n\t//Function Random Bet x3\r\n\tfunction randomBet3(uint256 _game, uint256 _select, uint256 _amount) external{\r\n\t\trequire(dai.balanceOf(msg.sender) >= _amount, \"Not enought DAI\");\r\n\t\trequire(_amount > 0 && _amount <= (5 * unity), \"Not between 0 and 5 DAI\");\r\n\t\t//Approved first, we transfer the bet from msg.sender\r\n\t\tdai.transferFrom(msg.sender, address(this), _amount);\r\n\t\t//Creating a semi-random number between 1-9\r\n\t\tuint256 x = random(1);\r\n\t\tuint256 y = 1;\r\n\t\t//Five possible answer, five If's. Allways return per three if correct.\r\n\t\tif((0 == x || x == 1) && _select == 1){\r\n\t\t\ty = _amount * 3;\r\n\t\t\tdai.approve(address(this), y);\r\n\t\t\tdai.transferFrom(address(this), msg.sender, y);\r\n\t\t}\r\n\t\tif((2 == x || x == 3) && _select == 2){\r\n\t\t\ty = _amount * 3;\r\n\t\t\tdai.approve(address(this), y);\r\n\t\t\tdai.transferFrom(address(this), msg.sender, y);\r\n\t\t}\r\n\t\tif((4 == x || x == 5) && _select == 3){\r\n\t\t\ty = _amount * 3;\r\n\t\t\tdai.approve(address(this), y);\r\n\t\t\tdai.transferFrom(address(this), msg.sender, y);\r\n\t\t}\r\n\t\tif((6 == x || x == 7) && _select == 4){\r\n\t\t\ty = _amount * 3;\r\n\t\t\tdai.approve(address(this), y);\r\n\t\t\tdai.transferFrom(address(this), msg.sender, y);\r\n\t\t}\r\n\t\tif((8 == x || x == 9) && _select == 5){\r\n\t\t\ty = _amount * 3;\r\n\t\t\tdai.approve(address(this), y);\r\n\t\t\tdai.transferFrom(address(this), msg.sender, y);\r\n\t\t}\r\n\t\tlastResult[userNum[msg.sender]][_game] = y;\r\n\t\t//Thanks to join our game\r\n\t}\r\n\t//Function Random Bet x5\r\n\tfunction randomBet5(uint256 _game, uint256 _select, uint256 _amount) external{\r\n\t\trequire(dai.balanceOf(msg.sender) >= _amount, \"Not enought DAI\");\r\n\t\trequire(_amount > 0 && _amount <= (5 * unity), \"Not between 0 and 5 DAI\");\r\n\t\t//Approved first, we transfer the bet from msg.sender\r\n\t\tdai.transferFrom(msg.sender, address(this), _amount);\r\n\t\t//Creating a semi-random number between 1-9\r\n\t\tuint256 x = random(1);\r\n\t\tuint256 y = 1;\r\n\t\t//One If all power, easy if random number is the same as selected you win. Allways return per five if correct.\r\n\t\tif(x == _select){\r\n\t\t\ty = _amount * 5;\r\n\t\t\tdai.approve(address(this), y);\r\n\t\t\tdai.transferFrom(address(this), msg.sender, y);\r\n\t\t}\r\n\t\tlastResult[userNum[msg.sender]][_game] = y;\r\n\t\t//Thanks to join our game\r\n\t}\r\n\t//Crazy Rulette\r\n\tfunction crazyRulette(uint256 _amount, uint256 _winMultiply, uint256 _game) external{\r\n\t\trequire(dai.balanceOf(msg.sender) >= _amount, \"Not enought DAI\");\r\n\t\trequire(_amount > 0 && _amount <= (5 * unity), \"Not between 0 and 5 DAI\");\r\n\t\trequire(_winMultiply <= maxWinMult, \"Not allowed that multiplier\");\r\n\t\t//Approved first, we transfer the bet from msg.sender\r\n\t\tdai.transferFrom(msg.sender, address(this), _amount);\r\n\t\tuint256 x = random(2) * unity;\r\n\t\tuint256 y = 1;\r\n\t\tuint256 perCent = checkPercent(_amount, _winMultiply);\r\n\t\tif(x <= perCent){\r\n\t\t\ty = _amount * _winMultiply;\r\n\t\t\tdai.approve(address(this), y);\r\n\t\t\tdai.transferFrom(address(this), msg.sender, y);\r\n\t\t}\r\n\t\tlastResult[userNum[msg.sender]][_game] = y;\r\n\t\t//Thanks to join our game\r\n\t}\r\n\t\r\n\r\n\t//Set Up\r\n\t//Take the benefits of the contract\r\n\tfunction takeBenefits() external onlyOwner{\r\n\t\tuint256 x = 0;\r\n\t\tx = uint256(dai.balanceOf(address(this)));//Reads balance of the contract\r\n\t\tdai.approve(msg.sender, x);\r\n\t\tdai.transferFrom(address(this), msg.sender, x);\r\n\t\t//Then approve & transfer all money to my account jeje\t\t\r\n\t}\r\n\t//Change owner\r\n\tfunction newOwner(address _newOwnerAddres) external onlyOwner{\r\n\t\tchangeOwner(_newOwnerAddres);\r\n\t\t//If I want to change my account I have this function on Migrations\r\n\t}\r\n\tfunction changeParams(uint256 _newMaxId, uint256 _newMaxWinMult) external onlyOwner{\r\n\t\tmaxId =  _newMaxId;\r\n\t\tmaxWinMult = _newMaxWinMult;\r\n\t}\r\n\tfunction getParams() external view onlyOwner returns(uint256 _maxId, uint256 _MaxWinMult){\r\n\t\treturn(maxId, maxWinMult);\r\n\t}\r\n\t\r\n\r\n//Thanks to check this out, it's important that we keep a basic understanding on those games we play and put money on it, for that Ethereum BlockChain is one of the best ways.\r\n//See you on other DAPP !\r\n}\r\n\r\n\r\n",
  "sourcePath": "C:\\Users\\User\\Desktop\\Project\\CryptoLuck\\contracts\\ChaotiCasino.sol",
  "compiler": {
    "name": "solc",
    "version": "0.5.0+commit.1d4f565a.Emscripten.clang"
  },
  "schemaVersion": "3.2.0",
  "updatedAt": "2020-09-15T16:34:13.931Z",
  "networkType": "ethereum",
  "devdoc": {
    "methods": {}
  },
  "userdoc": {
    "methods": {}
  }
}