{
  "contractName": "RandoChaosV1",
  "abi": [
    {
      "constant": true,
      "inputs": [],
      "name": "last_completed_migration",
      "outputs": [
        {
          "name": "",
          "type": "uint256"
        }
      ],
      "payable": false,
      "stateMutability": "view",
      "type": "function"
    },
    {
      "constant": true,
      "inputs": [],
      "name": "owner",
      "outputs": [
        {
          "name": "",
          "type": "address"
        }
      ],
      "payable": false,
      "stateMutability": "view",
      "type": "function"
    },
    {
      "constant": false,
      "inputs": [
        {
          "name": "newOwner",
          "type": "address"
        }
      ],
      "name": "changeOwner",
      "outputs": [],
      "payable": false,
      "stateMutability": "nonpayable",
      "type": "function"
    },
    {
      "constant": false,
      "inputs": [
        {
          "name": "completed",
          "type": "uint256"
        }
      ],
      "name": "setCompleted",
      "outputs": [],
      "payable": false,
      "stateMutability": "nonpayable",
      "type": "function"
    },
    {
      "inputs": [
        {
          "name": "_daiAddress",
          "type": "address"
        }
      ],
      "payable": false,
      "stateMutability": "nonpayable",
      "type": "constructor"
    },
    {
      "payable": true,
      "stateMutability": "payable",
      "type": "fallback"
    },
    {
      "constant": true,
      "inputs": [],
      "name": "getLastResult",
      "outputs": [
        {
          "name": "_lastResult1",
          "type": "uint256"
        }
      ],
      "payable": false,
      "stateMutability": "view",
      "type": "function"
    },
    {
      "constant": true,
      "inputs": [],
      "name": "getLastResult2",
      "outputs": [
        {
          "name": "_lastResult2",
          "type": "uint256"
        }
      ],
      "payable": false,
      "stateMutability": "view",
      "type": "function"
    },
    {
      "constant": true,
      "inputs": [],
      "name": "getLastResult3",
      "outputs": [
        {
          "name": "_lastResult3",
          "type": "uint256"
        }
      ],
      "payable": false,
      "stateMutability": "view",
      "type": "function"
    },
    {
      "constant": true,
      "inputs": [],
      "name": "getLastResult4",
      "outputs": [
        {
          "name": "_lastResult4",
          "type": "uint256"
        }
      ],
      "payable": false,
      "stateMutability": "view",
      "type": "function"
    },
    {
      "constant": true,
      "inputs": [],
      "name": "getLastResult5",
      "outputs": [
        {
          "name": "_lastResult5",
          "type": "uint256"
        }
      ],
      "payable": false,
      "stateMutability": "view",
      "type": "function"
    },
    {
      "constant": false,
      "inputs": [],
      "name": "rulette",
      "outputs": [],
      "payable": false,
      "stateMutability": "nonpayable",
      "type": "function"
    },
    {
      "constant": false,
      "inputs": [
        {
          "name": "_select",
          "type": "uint256"
        },
        {
          "name": "_amount",
          "type": "uint256"
        }
      ],
      "name": "appleDrop",
      "outputs": [],
      "payable": false,
      "stateMutability": "nonpayable",
      "type": "function"
    },
    {
      "constant": false,
      "inputs": [
        {
          "name": "_select",
          "type": "uint256"
        },
        {
          "name": "_amount",
          "type": "uint256"
        }
      ],
      "name": "rapeGame",
      "outputs": [],
      "payable": false,
      "stateMutability": "nonpayable",
      "type": "function"
    },
    {
      "constant": false,
      "inputs": [
        {
          "name": "_select",
          "type": "uint256"
        },
        {
          "name": "_amount",
          "type": "uint256"
        }
      ],
      "name": "cockFight",
      "outputs": [],
      "payable": false,
      "stateMutability": "nonpayable",
      "type": "function"
    },
    {
      "constant": false,
      "inputs": [
        {
          "name": "_select",
          "type": "uint256"
        },
        {
          "name": "_amount",
          "type": "uint256"
        }
      ],
      "name": "smurfDay",
      "outputs": [],
      "payable": false,
      "stateMutability": "nonpayable",
      "type": "function"
    },
    {
      "constant": false,
      "inputs": [],
      "name": "takeBenefits",
      "outputs": [],
      "payable": false,
      "stateMutability": "nonpayable",
      "type": "function"
    },
    {
      "constant": false,
      "inputs": [
        {
          "name": "_newOwnerAddres",
          "type": "address"
        }
      ],
      "name": "newOwner",
      "outputs": [],
      "payable": false,
      "stateMutability": "nonpayable",
      "type": "function"
    }
  ],
  "bytecode": "0x6080604052670de0b6b3a76400006003553480156200001d57600080fd5b5060405160208062005958833981018060405260208110156200003f57600080fd5b8101908080519060200190929190505050336000806101000a81548173ffffffffffffffffffffffffffffffffffffffff021916908373ffffffffffffffffffffffffffffffffffffffff16021790555080600260006101000a81548173ffffffffffffffffffffffffffffffffffffffff021916908373ffffffffffffffffffffffffffffffffffffffff1602179055505061587680620000e26000396000f3fe6080604052600436106100e5576000357c0100000000000000000000000000000000000000000000000000000000900463ffffffff168062c23892146100e75780633dc4db64146100fe57806341fbd2f414610129578063445df0ac1461016e578063487049e2146101995780634cfe09ae146101de5780637c0a43851461020957806385952454146102345780638da5cb5b146102855780638e0995a4146102dc57806392093dd614610321578063a6f9dae11461034c578063b19193fb1461039d578063c49e512d146103e2578063eaa28b2d146103f9578063fdacd57614610424575b005b3480156100f357600080fd5b506100fc61045f565b005b34801561010a57600080fd5b50610113611dae565b6040518082815260200191505060405180910390f35b34801561013557600080fd5b5061016c6004803603604081101561014c57600080fd5b810190808035906020019092919080359060200190929190505050611eac565b005b34801561017a57600080fd5b50610183612fd1565b6040518082815260200191505060405180910390f35b3480156101a557600080fd5b506101dc600480360360408110156101bc57600080fd5b810190808035906020019092919080359060200190929190505050612fd7565b005b3480156101ea57600080fd5b506101f3613bd0565b6040518082815260200191505060405180910390f35b34801561021557600080fd5b5061021e613cce565b6040518082815260200191505060405180910390f35b34801561024057600080fd5b506102836004803603602081101561025757600080fd5b81019080803573ffffffffffffffffffffffffffffffffffffffff169060200190929190505050613dcc565b005b34801561029157600080fd5b5061029a613e9c565b604051808273ffffffffffffffffffffffffffffffffffffffff1673ffffffffffffffffffffffffffffffffffffffff16815260200191505060405180910390f35b3480156102e857600080fd5b5061031f600480360360408110156102ff57600080fd5b810190808035906020019092919080359060200190929190505050613ec1565b005b34801561032d57600080fd5b50610336614aba565b6040518082815260200191505060405180910390f35b34801561035857600080fd5b5061039b6004803603602081101561036f57600080fd5b81019080803573ffffffffffffffffffffffffffffffffffffffff169060200190929190505050614bb8565b005b3480156103a957600080fd5b506103e0600480360360408110156103c057600080fd5b810190808035906020019092919080359060200190929190505050614cbf565b005b3480156103ee57600080fd5b506103f7615348565b005b34801561040557600080fd5b5061040e615742565b6040518082815260200191505060405180910390f35b34801561043057600080fd5b5061045d6004803603602081101561044757600080fd5b8101908080359060200190929190505050615840565b005b600354600260009054906101000a900473ffffffffffffffffffffffffffffffffffffffff1673ffffffffffffffffffffffffffffffffffffffff166370a08231336040518263ffffffff167c0100000000000000000000000000000000000000000000000000000000028152600401808273ffffffffffffffffffffffffffffffffffffffff1673ffffffffffffffffffffffffffffffffffffffff16815260200191505060206040518083038186803b15801561051d57600080fd5b505afa158015610531573d6000803e3d6000fd5b505050506040513d602081101561054757600080fd5b8101908080519060200190929190505050101515156105ce576040517f08c379a000000000000000000000000000000000000000000000000000000000815260040180806020018281038252600e8152602001807f4e6f20656e6f756768742044414900000000000000000000000000000000000081525060200191505060405180910390fd5b600060405160200180807f6368616f730000000000000000000000000000000000000000000000000000008152506005019050604051602081830303815290604052805190602001206001900490506000662386f26fc100008281151561063157fe5b0691504282029150600a8281151561064557fe5b069150600260009054906101000a900473ffffffffffffffffffffffffffffffffffffffff1673ffffffffffffffffffffffffffffffffffffffff166323b872dd33306003546040518463ffffffff167c0100000000000000000000000000000000000000000000000000000000028152600401808473ffffffffffffffffffffffffffffffffffffffff1673ffffffffffffffffffffffffffffffffffffffff1681526020018373ffffffffffffffffffffffffffffffffffffffff1673ffffffffffffffffffffffffffffffffffffffff1681526020018281526020019350505050602060405180830381600087803b15801561074357600080fd5b505af1158015610757573d6000803e3d6000fd5b505050506040513d602081101561076d57600080fd5b81019080805190602001909291905050505060008214156108c3576003549050600260009054906101000a900473ffffffffffffffffffffffffffffffffffffffff1673ffffffffffffffffffffffffffffffffffffffff166323b872dd3033846040518463ffffffff167c0100000000000000000000000000000000000000000000000000000000028152600401808473ffffffffffffffffffffffffffffffffffffffff1673ffffffffffffffffffffffffffffffffffffffff1681526020018373ffffffffffffffffffffffffffffffffffffffff1673ffffffffffffffffffffffffffffffffffffffff1681526020018281526020019350505050602060405180830381600087803b15801561088657600080fd5b505af115801561089a573d6000803e3d6000fd5b505050506040513d60208110156108b057600080fd5b8101908080519060200190929190505050505b6001821415610b0e5767058d15e1762800009050600260009054906101000a900473ffffffffffffffffffffffffffffffffffffffff1673ffffffffffffffffffffffffffffffffffffffff1663095ea7b330836040518363ffffffff167c0100000000000000000000000000000000000000000000000000000000028152600401808373ffffffffffffffffffffffffffffffffffffffff1673ffffffffffffffffffffffffffffffffffffffff16815260200182815260200192505050602060405180830381600087803b15801561099c57600080fd5b505af11580156109b0573d6000803e3d6000fd5b505050506040513d60208110156109c657600080fd5b810190808051906020019092919050505050600260009054906101000a900473ffffffffffffffffffffffffffffffffffffffff1673ffffffffffffffffffffffffffffffffffffffff166323b872dd3033846040518463ffffffff167c0100000000000000000000000000000000000000000000000000000000028152600401808473ffffffffffffffffffffffffffffffffffffffff1673ffffffffffffffffffffffffffffffffffffffff1681526020018373ffffffffffffffffffffffffffffffffffffffff1673ffffffffffffffffffffffffffffffffffffffff1681526020018281526020019350505050602060405180830381600087803b158015610ad157600080fd5b505af1158015610ae5573d6000803e3d6000fd5b505050506040513d6020811015610afb57600080fd5b8101908080519060200190929190505050505b6002821415610d59576702c68af0bb1400009050600260009054906101000a900473ffffffffffffffffffffffffffffffffffffffff1673ffffffffffffffffffffffffffffffffffffffff1663095ea7b330836040518363ffffffff167c0100000000000000000000000000000000000000000000000000000000028152600401808373ffffffffffffffffffffffffffffffffffffffff1673ffffffffffffffffffffffffffffffffffffffff16815260200182815260200192505050602060405180830381600087803b158015610be757600080fd5b505af1158015610bfb573d6000803e3d6000fd5b505050506040513d6020811015610c1157600080fd5b810190808051906020019092919050505050600260009054906101000a900473ffffffffffffffffffffffffffffffffffffffff1673ffffffffffffffffffffffffffffffffffffffff166323b872dd3033846040518463ffffffff167c0100000000000000000000000000000000000000000000000000000000028152600401808473ffffffffffffffffffffffffffffffffffffffff1673ffffffffffffffffffffffffffffffffffffffff1681526020018373ffffffffffffffffffffffffffffffffffffffff1673ffffffffffffffffffffffffffffffffffffffff1681526020018281526020019350505050602060405180830381600087803b158015610d1c57600080fd5b505af1158015610d30573d6000803e3d6000fd5b505050506040513d6020811015610d4657600080fd5b8101908080519060200190929190505050505b6003821415610fa457670905438e600100009050600260009054906101000a900473ffffffffffffffffffffffffffffffffffffffff1673ffffffffffffffffffffffffffffffffffffffff1663095ea7b330836040518363ffffffff167c0100000000000000000000000000000000000000000000000000000000028152600401808373ffffffffffffffffffffffffffffffffffffffff1673ffffffffffffffffffffffffffffffffffffffff16815260200182815260200192505050602060405180830381600087803b158015610e3257600080fd5b505af1158015610e46573d6000803e3d6000fd5b505050506040513d6020811015610e5c57600080fd5b810190808051906020019092919050505050600260009054906101000a900473ffffffffffffffffffffffffffffffffffffffff1673ffffffffffffffffffffffffffffffffffffffff166323b872dd3033846040518463ffffffff167c0100000000000000000000000000000000000000000000000000000000028152600401808473ffffffffffffffffffffffffffffffffffffffff1673ffffffffffffffffffffffffffffffffffffffff1681526020018373ffffffffffffffffffffffffffffffffffffffff1673ffffffffffffffffffffffffffffffffffffffff1681526020018281526020019350505050602060405180830381600087803b158015610f6757600080fd5b505af1158015610f7b573d6000803e3d6000fd5b505050506040513d6020811015610f9157600080fd5b8101908080519060200190929190505050505b60048214156111ef5767063eb89da4ed00009050600260009054906101000a900473ffffffffffffffffffffffffffffffffffffffff1673ffffffffffffffffffffffffffffffffffffffff1663095ea7b330836040518363ffffffff167c0100000000000000000000000000000000000000000000000000000000028152600401808373ffffffffffffffffffffffffffffffffffffffff1673ffffffffffffffffffffffffffffffffffffffff16815260200182815260200192505050602060405180830381600087803b15801561107d57600080fd5b505af1158015611091573d6000803e3d6000fd5b505050506040513d60208110156110a757600080fd5b810190808051906020019092919050505050600260009054906101000a900473ffffffffffffffffffffffffffffffffffffffff1673ffffffffffffffffffffffffffffffffffffffff166323b872dd3033846040518463ffffffff167c0100000000000000000000000000000000000000000000000000000000028152600401808473ffffffffffffffffffffffffffffffffffffffff1673ffffffffffffffffffffffffffffffffffffffff1681526020018373ffffffffffffffffffffffffffffffffffffffff1673ffffffffffffffffffffffffffffffffffffffff1681526020018281526020019350505050602060405180830381600087803b1580156111b257600080fd5b505af11580156111c6573d6000803e3d6000fd5b505050506040513d60208110156111dc57600080fd5b8101908080519060200190929190505050505b600582141561143a57671bc16d674ec800009050600260009054906101000a900473ffffffffffffffffffffffffffffffffffffffff1673ffffffffffffffffffffffffffffffffffffffff1663095ea7b330836040518363ffffffff167c0100000000000000000000000000000000000000000000000000000000028152600401808373ffffffffffffffffffffffffffffffffffffffff1673ffffffffffffffffffffffffffffffffffffffff16815260200182815260200192505050602060405180830381600087803b1580156112c857600080fd5b505af11580156112dc573d6000803e3d6000fd5b505050506040513d60208110156112f257600080fd5b810190808051906020019092919050505050600260009054906101000a900473ffffffffffffffffffffffffffffffffffffffff1673ffffffffffffffffffffffffffffffffffffffff166323b872dd3033846040518463ffffffff167c0100000000000000000000000000000000000000000000000000000000028152600401808473ffffffffffffffffffffffffffffffffffffffff1673ffffffffffffffffffffffffffffffffffffffff1681526020018373ffffffffffffffffffffffffffffffffffffffff1673ffffffffffffffffffffffffffffffffffffffff1681526020018281526020019350505050602060405180830381600087803b1580156113fd57600080fd5b505af1158015611411573d6000803e3d6000fd5b505050506040513d602081101561142757600080fd5b8101908080519060200190929190505050505b600682141561168557670b1a2bc2ec5000009050600260009054906101000a900473ffffffffffffffffffffffffffffffffffffffff1673ffffffffffffffffffffffffffffffffffffffff1663095ea7b330836040518363ffffffff167c0100000000000000000000000000000000000000000000000000000000028152600401808373ffffffffffffffffffffffffffffffffffffffff1673ffffffffffffffffffffffffffffffffffffffff16815260200182815260200192505050602060405180830381600087803b15801561151357600080fd5b505af1158015611527573d6000803e3d6000fd5b505050506040513d602081101561153d57600080fd5b810190808051906020019092919050505050600260009054906101000a900473ffffffffffffffffffffffffffffffffffffffff1673ffffffffffffffffffffffffffffffffffffffff166323b872dd3033846040518463ffffffff167c0100000000000000000000000000000000000000000000000000000000028152600401808473ffffffffffffffffffffffffffffffffffffffff1673ffffffffffffffffffffffffffffffffffffffff1681526020018373ffffffffffffffffffffffffffffffffffffffff1673ffffffffffffffffffffffffffffffffffffffff1681526020018281526020019350505050602060405180830381600087803b15801561164857600080fd5b505af115801561165c573d6000803e3d6000fd5b505050506040513d602081101561167257600080fd5b8101908080519060200190929190505050505b60078214156118d0576706f05b59d3b200009050600260009054906101000a900473ffffffffffffffffffffffffffffffffffffffff1673ffffffffffffffffffffffffffffffffffffffff1663095ea7b330836040518363ffffffff167c0100000000000000000000000000000000000000000000000000000000028152600401808373ffffffffffffffffffffffffffffffffffffffff1673ffffffffffffffffffffffffffffffffffffffff16815260200182815260200192505050602060405180830381600087803b15801561175e57600080fd5b505af1158015611772573d6000803e3d6000fd5b505050506040513d602081101561178857600080fd5b810190808051906020019092919050505050600260009054906101000a900473ffffffffffffffffffffffffffffffffffffffff1673ffffffffffffffffffffffffffffffffffffffff166323b872dd3033846040518463ffffffff167c0100000000000000000000000000000000000000000000000000000000028152600401808473ffffffffffffffffffffffffffffffffffffffff1673ffffffffffffffffffffffffffffffffffffffff1681526020018373ffffffffffffffffffffffffffffffffffffffff1673ffffffffffffffffffffffffffffffffffffffff1681526020018281526020019350505050602060405180830381600087803b15801561189357600080fd5b505af11580156118a7573d6000803e3d6000fd5b505050506040513d60208110156118bd57600080fd5b8101908080519060200190929190505050505b6008821415611b1b57670853a0d2313c00009050600260009054906101000a900473ffffffffffffffffffffffffffffffffffffffff1673ffffffffffffffffffffffffffffffffffffffff1663095ea7b330836040518363ffffffff167c0100000000000000000000000000000000000000000000000000000000028152600401808373ffffffffffffffffffffffffffffffffffffffff1673ffffffffffffffffffffffffffffffffffffffff16815260200182815260200192505050602060405180830381600087803b1580156119a957600080fd5b505af11580156119bd573d6000803e3d6000fd5b505050506040513d60208110156119d357600080fd5b810190808051906020019092919050505050600260009054906101000a900473ffffffffffffffffffffffffffffffffffffffff1673ffffffffffffffffffffffffffffffffffffffff166323b872dd3033846040518463ffffffff167c0100000000000000000000000000000000000000000000000000000000028152600401808473ffffffffffffffffffffffffffffffffffffffff1673ffffffffffffffffffffffffffffffffffffffff1681526020018373ffffffffffffffffffffffffffffffffffffffff1673ffffffffffffffffffffffffffffffffffffffff1681526020018281526020019350505050602060405180830381600087803b158015611ade57600080fd5b505af1158015611af2573d6000803e3d6000fd5b505050506040513d6020811015611b0857600080fd5b8101908080519060200190929190505050505b6009821415611d66576706f05b59d3b200009050600260009054906101000a900473ffffffffffffffffffffffffffffffffffffffff1673ffffffffffffffffffffffffffffffffffffffff1663095ea7b330836040518363ffffffff167c0100000000000000000000000000000000000000000000000000000000028152600401808373ffffffffffffffffffffffffffffffffffffffff1673ffffffffffffffffffffffffffffffffffffffff16815260200182815260200192505050602060405180830381600087803b158015611bf457600080fd5b505af1158015611c08573d6000803e3d6000fd5b505050506040513d6020811015611c1e57600080fd5b810190808051906020019092919050505050600260009054906101000a900473ffffffffffffffffffffffffffffffffffffffff1673ffffffffffffffffffffffffffffffffffffffff166323b872dd3033846040518463ffffffff167c0100000000000000000000000000000000000000000000000000000000028152600401808473ffffffffffffffffffffffffffffffffffffffff1673ffffffffffffffffffffffffffffffffffffffff1681526020018373ffffffffffffffffffffffffffffffffffffffff1673ffffffffffffffffffffffffffffffffffffffff1681526020018281526020019350505050602060405180830381600087803b158015611d2957600080fd5b505af1158015611d3d573d6000803e3d6000fd5b505050506040513d6020811015611d5357600080fd5b8101908080519060200190929190505050505b80600460003373ffffffffffffffffffffffffffffffffffffffff1673ffffffffffffffffffffffffffffffffffffffff168152602001908152602001600020819055505050565b600080600560003373ffffffffffffffffffffffffffffffffffffffff1673ffffffffffffffffffffffffffffffffffffffff1681526020019081526020016000205414151515611e67576040517f08c379a000000000000000000000000000000000000000000000000000000000815260040180806020018281038252600d8152602001807f4e6f20706c61792c207965742e0000000000000000000000000000000000000081525060200191505060405180910390fd5b600560003373ffffffffffffffffffffffffffffffffffffffff1673ffffffffffffffffffffffffffffffffffffffff16815260200190815260200160002054905090565b80600260009054906101000a900473ffffffffffffffffffffffffffffffffffffffff1673ffffffffffffffffffffffffffffffffffffffff166370a08231336040518263ffffffff167c0100000000000000000000000000000000000000000000000000000000028152600401808273ffffffffffffffffffffffffffffffffffffffff1673ffffffffffffffffffffffffffffffffffffffff16815260200191505060206040518083038186803b158015611f6857600080fd5b505afa158015611f7c573d6000803e3d6000fd5b505050506040513d6020811015611f9257600080fd5b810190808051906020019092919050505010151515612019576040517f08c379a000000000000000000000000000000000000000000000000000000000815260040180806020018281038252600f8152602001807f4e6f7420656e6f7567687420444149000000000000000000000000000000000081525060200191505060405180910390fd5b60008111801561202e57506003546005028111155b15156120a2576040517f08c379a00000000000000000000000000000000000000000000000000000000081526004018080602001828103825260178152602001807f4e6f74206265747765656e203020616e6420352044414900000000000000000081525060200191505060405180910390fd5b600260009054906101000a900473ffffffffffffffffffffffffffffffffffffffff1673ffffffffffffffffffffffffffffffffffffffff166323b872dd3330846040518463ffffffff167c0100000000000000000000000000000000000000000000000000000000028152600401808473ffffffffffffffffffffffffffffffffffffffff1673ffffffffffffffffffffffffffffffffffffffff1681526020018373ffffffffffffffffffffffffffffffffffffffff1673ffffffffffffffffffffffffffffffffffffffff1681526020018281526020019350505050602060405180830381600087803b15801561219b57600080fd5b505af11580156121af573d6000803e3d6000fd5b505050506040513d60208110156121c557600080fd5b8101908080519060200190929190505050506000809050600080905060405160200180807f7261706547616d65000000000000000000000000000000000000000000000000815250600801905060405160208183030381529060405280519060200120600190049150662386f26fc100008281151561224057fe5b0691504282029150600a8281151561225457fe5b06915081600014806122665750600182145b80156122725750600184145b156124f857600383029050600260009054906101000a900473ffffffffffffffffffffffffffffffffffffffff1673ffffffffffffffffffffffffffffffffffffffff1663095ea7b330836040518363ffffffff167c0100000000000000000000000000000000000000000000000000000000028152600401808373ffffffffffffffffffffffffffffffffffffffff1673ffffffffffffffffffffffffffffffffffffffff16815260200182815260200192505050602060405180830381600087803b15801561234257600080fd5b505af1158015612356573d6000803e3d6000fd5b505050506040513d602081101561236c57600080fd5b810190808051906020019092919050505050600260009054906101000a900473ffffffffffffffffffffffffffffffffffffffff1673ffffffffffffffffffffffffffffffffffffffff166323b872dd3033846040518463ffffffff167c0100000000000000000000000000000000000000000000000000000000028152600401808473ffffffffffffffffffffffffffffffffffffffff1673ffffffffffffffffffffffffffffffffffffffff1681526020018373ffffffffffffffffffffffffffffffffffffffff1673ffffffffffffffffffffffffffffffffffffffff1681526020018281526020019350505050602060405180830381600087803b15801561247757600080fd5b505af115801561248b573d6000803e3d6000fd5b505050506040513d60208110156124a157600080fd5b81019080805190602001909291905050505080600660003373ffffffffffffffffffffffffffffffffffffffff1673ffffffffffffffffffffffffffffffffffffffff168152602001908152602001600020819055505b81600214806125075750600382145b80156125135750600284145b1561279957600383029050600260009054906101000a900473ffffffffffffffffffffffffffffffffffffffff1673ffffffffffffffffffffffffffffffffffffffff1663095ea7b330836040518363ffffffff167c0100000000000000000000000000000000000000000000000000000000028152600401808373ffffffffffffffffffffffffffffffffffffffff1673ffffffffffffffffffffffffffffffffffffffff16815260200182815260200192505050602060405180830381600087803b1580156125e357600080fd5b505af11580156125f7573d6000803e3d6000fd5b505050506040513d602081101561260d57600080fd5b810190808051906020019092919050505050600260009054906101000a900473ffffffffffffffffffffffffffffffffffffffff1673ffffffffffffffffffffffffffffffffffffffff166323b872dd3033846040518463ffffffff167c0100000000000000000000000000000000000000000000000000000000028152600401808473ffffffffffffffffffffffffffffffffffffffff1673ffffffffffffffffffffffffffffffffffffffff1681526020018373ffffffffffffffffffffffffffffffffffffffff1673ffffffffffffffffffffffffffffffffffffffff1681526020018281526020019350505050602060405180830381600087803b15801561271857600080fd5b505af115801561272c573d6000803e3d6000fd5b505050506040513d602081101561274257600080fd5b81019080805190602001909291905050505080600660003373ffffffffffffffffffffffffffffffffffffffff1673ffffffffffffffffffffffffffffffffffffffff168152602001908152602001600020819055505b81600414806127a85750600582145b80156127b45750600384145b15612a3a57600383029050600260009054906101000a900473ffffffffffffffffffffffffffffffffffffffff1673ffffffffffffffffffffffffffffffffffffffff1663095ea7b330836040518363ffffffff167c0100000000000000000000000000000000000000000000000000000000028152600401808373ffffffffffffffffffffffffffffffffffffffff1673ffffffffffffffffffffffffffffffffffffffff16815260200182815260200192505050602060405180830381600087803b15801561288457600080fd5b505af1158015612898573d6000803e3d6000fd5b505050506040513d60208110156128ae57600080fd5b810190808051906020019092919050505050600260009054906101000a900473ffffffffffffffffffffffffffffffffffffffff1673ffffffffffffffffffffffffffffffffffffffff166323b872dd3033846040518463ffffffff167c0100000000000000000000000000000000000000000000000000000000028152600401808473ffffffffffffffffffffffffffffffffffffffff1673ffffffffffffffffffffffffffffffffffffffff1681526020018373ffffffffffffffffffffffffffffffffffffffff1673ffffffffffffffffffffffffffffffffffffffff1681526020018281526020019350505050602060405180830381600087803b1580156129b957600080fd5b505af11580156129cd573d6000803e3d6000fd5b505050506040513d60208110156129e357600080fd5b81019080805190602001909291905050505080600660003373ffffffffffffffffffffffffffffffffffffffff1673ffffffffffffffffffffffffffffffffffffffff168152602001908152602001600020819055505b8160061480612a495750600782145b8015612a555750600484145b15612cdb57600383029050600260009054906101000a900473ffffffffffffffffffffffffffffffffffffffff1673ffffffffffffffffffffffffffffffffffffffff1663095ea7b330836040518363ffffffff167c0100000000000000000000000000000000000000000000000000000000028152600401808373ffffffffffffffffffffffffffffffffffffffff1673ffffffffffffffffffffffffffffffffffffffff16815260200182815260200192505050602060405180830381600087803b158015612b2557600080fd5b505af1158015612b39573d6000803e3d6000fd5b505050506040513d6020811015612b4f57600080fd5b810190808051906020019092919050505050600260009054906101000a900473ffffffffffffffffffffffffffffffffffffffff1673ffffffffffffffffffffffffffffffffffffffff166323b872dd3033846040518463ffffffff167c0100000000000000000000000000000000000000000000000000000000028152600401808473ffffffffffffffffffffffffffffffffffffffff1673ffffffffffffffffffffffffffffffffffffffff1681526020018373ffffffffffffffffffffffffffffffffffffffff1673ffffffffffffffffffffffffffffffffffffffff1681526020018281526020019350505050602060405180830381600087803b158015612c5a57600080fd5b505af1158015612c6e573d6000803e3d6000fd5b505050506040513d6020811015612c8457600080fd5b81019080805190602001909291905050505080600660003373ffffffffffffffffffffffffffffffffffffffff1673ffffffffffffffffffffffffffffffffffffffff168152602001908152602001600020819055505b8160081480612cea5750600982145b8015612cf65750600584145b15612f7c57600383029050600260009054906101000a900473ffffffffffffffffffffffffffffffffffffffff1673ffffffffffffffffffffffffffffffffffffffff1663095ea7b330836040518363ffffffff167c0100000000000000000000000000000000000000000000000000000000028152600401808373ffffffffffffffffffffffffffffffffffffffff1673ffffffffffffffffffffffffffffffffffffffff16815260200182815260200192505050602060405180830381600087803b158015612dc657600080fd5b505af1158015612dda573d6000803e3d6000fd5b505050506040513d6020811015612df057600080fd5b810190808051906020019092919050505050600260009054906101000a900473ffffffffffffffffffffffffffffffffffffffff1673ffffffffffffffffffffffffffffffffffffffff166323b872dd3033846040518463ffffffff167c0100000000000000000000000000000000000000000000000000000000028152600401808473ffffffffffffffffffffffffffffffffffffffff1673ffffffffffffffffffffffffffffffffffffffff1681526020018373ffffffffffffffffffffffffffffffffffffffff1673ffffffffffffffffffffffffffffffffffffffff1681526020018281526020019350505050602060405180830381600087803b158015612efb57600080fd5b505af1158015612f0f573d6000803e3d6000fd5b505050506040513d6020811015612f2557600080fd5b81019080805190602001909291905050505080600660003373ffffffffffffffffffffffffffffffffffffffff1673ffffffffffffffffffffffffffffffffffffffff168152602001908152602001600020819055505b6000811415612fcb576001600660003373ffffffffffffffffffffffffffffffffffffffff1673ffffffffffffffffffffffffffffffffffffffff168152602001908152602001600020819055505b50505050565b60015481565b80600260009054906101000a900473ffffffffffffffffffffffffffffffffffffffff1673ffffffffffffffffffffffffffffffffffffffff166370a08231336040518263ffffffff167c0100000000000000000000000000000000000000000000000000000000028152600401808273ffffffffffffffffffffffffffffffffffffffff1673ffffffffffffffffffffffffffffffffffffffff16815260200191505060206040518083038186803b15801561309357600080fd5b505afa1580156130a7573d6000803e3d6000fd5b505050506040513d60208110156130bd57600080fd5b810190808051906020019092919050505010151515613144576040517f08c379a000000000000000000000000000000000000000000000000000000000815260040180806020018281038252600f8152602001807f4e6f7420656e6f7567687420444149000000000000000000000000000000000081525060200191505060405180910390fd5b60008111801561315957506003546005028111155b15156131cd576040517f08c379a00000000000000000000000000000000000000000000000000000000081526004018080602001828103825260178152602001807f4e6f74206265747765656e203020616e6420352044414900000000000000000081525060200191505060405180910390fd5b600260009054906101000a900473ffffffffffffffffffffffffffffffffffffffff1673ffffffffffffffffffffffffffffffffffffffff166323b872dd3330846040518463ffffffff167c0100000000000000000000000000000000000000000000000000000000028152600401808473ffffffffffffffffffffffffffffffffffffffff1673ffffffffffffffffffffffffffffffffffffffff1681526020018373ffffffffffffffffffffffffffffffffffffffff1673ffffffffffffffffffffffffffffffffffffffff1681526020018281526020019350505050602060405180830381600087803b1580156132c657600080fd5b505af11580156132da573d6000803e3d6000fd5b505050506040513d60208110156132f057600080fd5b8101908080519060200190929190505050506000809050600080905060405160200180807f6170706c6544726f700000000000000000000000000000000000000000000000815250600901905060405160208183030381529060405280519060200120600190049150662386f26fc100008281151561336b57fe5b0691504282029150600a8281151561337f57fe5b069150600082141561338f578291505b816001111580156133a1575060038211155b80156133ad5750600184145b1561363357600283029050600260009054906101000a900473ffffffffffffffffffffffffffffffffffffffff1673ffffffffffffffffffffffffffffffffffffffff1663095ea7b330836040518363ffffffff167c0100000000000000000000000000000000000000000000000000000000028152600401808373ffffffffffffffffffffffffffffffffffffffff1673ffffffffffffffffffffffffffffffffffffffff16815260200182815260200192505050602060405180830381600087803b15801561347d57600080fd5b505af1158015613491573d6000803e3d6000fd5b505050506040513d60208110156134a757600080fd5b810190808051906020019092919050505050600260009054906101000a900473ffffffffffffffffffffffffffffffffffffffff1673ffffffffffffffffffffffffffffffffffffffff166323b872dd3033846040518463ffffffff167c0100000000000000000000000000000000000000000000000000000000028152600401808473ffffffffffffffffffffffffffffffffffffffff1673ffffffffffffffffffffffffffffffffffffffff1681526020018373ffffffffffffffffffffffffffffffffffffffff1673ffffffffffffffffffffffffffffffffffffffff1681526020018281526020019350505050602060405180830381600087803b1580156135b257600080fd5b505af11580156135c6573d6000803e3d6000fd5b505050506040513d60208110156135dc57600080fd5b81019080805190602001909291905050505080600560003373ffffffffffffffffffffffffffffffffffffffff1673ffffffffffffffffffffffffffffffffffffffff168152602001908152602001600020819055505b81600411158015613645575060068211155b80156136515750600284145b156138d757600283029050600260009054906101000a900473ffffffffffffffffffffffffffffffffffffffff1673ffffffffffffffffffffffffffffffffffffffff1663095ea7b330836040518363ffffffff167c0100000000000000000000000000000000000000000000000000000000028152600401808373ffffffffffffffffffffffffffffffffffffffff1673ffffffffffffffffffffffffffffffffffffffff16815260200182815260200192505050602060405180830381600087803b15801561372157600080fd5b505af1158015613735573d6000803e3d6000fd5b505050506040513d602081101561374b57600080fd5b810190808051906020019092919050505050600260009054906101000a900473ffffffffffffffffffffffffffffffffffffffff1673ffffffffffffffffffffffffffffffffffffffff166323b872dd3033846040518463ffffffff167c0100000000000000000000000000000000000000000000000000000000028152600401808473ffffffffffffffffffffffffffffffffffffffff1673ffffffffffffffffffffffffffffffffffffffff1681526020018373ffffffffffffffffffffffffffffffffffffffff1673ffffffffffffffffffffffffffffffffffffffff1681526020018281526020019350505050602060405180830381600087803b15801561385657600080fd5b505af115801561386a573d6000803e3d6000fd5b505050506040513d602081101561388057600080fd5b81019080805190602001909291905050505080600560003373ffffffffffffffffffffffffffffffffffffffff1673ffffffffffffffffffffffffffffffffffffffff168152602001908152602001600020819055505b816007111580156138e9575060098211155b80156138f55750600384145b15613b7b57600283029050600260009054906101000a900473ffffffffffffffffffffffffffffffffffffffff1673ffffffffffffffffffffffffffffffffffffffff1663095ea7b330836040518363ffffffff167c0100000000000000000000000000000000000000000000000000000000028152600401808373ffffffffffffffffffffffffffffffffffffffff1673ffffffffffffffffffffffffffffffffffffffff16815260200182815260200192505050602060405180830381600087803b1580156139c557600080fd5b505af11580156139d9573d6000803e3d6000fd5b505050506040513d60208110156139ef57600080fd5b810190808051906020019092919050505050600260009054906101000a900473ffffffffffffffffffffffffffffffffffffffff1673ffffffffffffffffffffffffffffffffffffffff166323b872dd3033846040518463ffffffff167c0100000000000000000000000000000000000000000000000000000000028152600401808473ffffffffffffffffffffffffffffffffffffffff1673ffffffffffffffffffffffffffffffffffffffff1681526020018373ffffffffffffffffffffffffffffffffffffffff1673ffffffffffffffffffffffffffffffffffffffff1681526020018281526020019350505050602060405180830381600087803b158015613afa57600080fd5b505af1158015613b0e573d6000803e3d6000fd5b505050506040513d6020811015613b2457600080fd5b81019080805190602001909291905050505080600560003373ffffffffffffffffffffffffffffffffffffffff1673ffffffffffffffffffffffffffffffffffffffff168152602001908152602001600020819055505b6000811415613bca576001600560003373ffffffffffffffffffffffffffffffffffffffff1673ffffffffffffffffffffffffffffffffffffffff168152602001908152602001600020819055505b50505050565b600080600860003373ffffffffffffffffffffffffffffffffffffffff1673ffffffffffffffffffffffffffffffffffffffff1681526020019081526020016000205414151515613c89576040517f08c379a000000000000000000000000000000000000000000000000000000000815260040180806020018281038252600d8152602001807f4e6f20706c61792c207965742e0000000000000000000000000000000000000081525060200191505060405180910390fd5b600860003373ffffffffffffffffffffffffffffffffffffffff1673ffffffffffffffffffffffffffffffffffffffff16815260200190815260200160002054905090565b600080600760003373ffffffffffffffffffffffffffffffffffffffff1673ffffffffffffffffffffffffffffffffffffffff1681526020019081526020016000205414151515613d87576040517f08c379a000000000000000000000000000000000000000000000000000000000815260040180806020018281038252600d8152602001807f4e6f20706c61792c207965742e0000000000000000000000000000000000000081525060200191505060405180910390fd5b600760003373ffffffffffffffffffffffffffffffffffffffff1673ffffffffffffffffffffffffffffffffffffffff16815260200190815260200160002054905090565b6000809054906101000a900473ffffffffffffffffffffffffffffffffffffffff1673ffffffffffffffffffffffffffffffffffffffff163373ffffffffffffffffffffffffffffffffffffffff16141515613e90576040517f08c379a00000000000000000000000000000000000000000000000000000000081526004018080602001828103825260098152602001807f4e6f74204f776e6572000000000000000000000000000000000000000000000081525060200191505060405180910390fd5b613e9981614bb8565b50565b6000809054906101000a900473ffffffffffffffffffffffffffffffffffffffff1681565b80600260009054906101000a900473ffffffffffffffffffffffffffffffffffffffff1673ffffffffffffffffffffffffffffffffffffffff166370a08231336040518263ffffffff167c0100000000000000000000000000000000000000000000000000000000028152600401808273ffffffffffffffffffffffffffffffffffffffff1673ffffffffffffffffffffffffffffffffffffffff16815260200191505060206040518083038186803b158015613f7d57600080fd5b505afa158015613f91573d6000803e3d6000fd5b505050506040513d6020811015613fa757600080fd5b81019080805190602001909291905050501015151561402e576040517f08c379a000000000000000000000000000000000000000000000000000000000815260040180806020018281038252600f8152602001807f4e6f7420656e6f7567687420444149000000000000000000000000000000000081525060200191505060405180910390fd5b60008111801561404357506003546005028111155b15156140b7576040517f08c379a00000000000000000000000000000000000000000000000000000000081526004018080602001828103825260178152602001807f4e6f74206265747765656e203020616e6420352044414900000000000000000081525060200191505060405180910390fd5b600260009054906101000a900473ffffffffffffffffffffffffffffffffffffffff1673ffffffffffffffffffffffffffffffffffffffff166323b872dd3330846040518463ffffffff167c0100000000000000000000000000000000000000000000000000000000028152600401808473ffffffffffffffffffffffffffffffffffffffff1673ffffffffffffffffffffffffffffffffffffffff1681526020018373ffffffffffffffffffffffffffffffffffffffff1673ffffffffffffffffffffffffffffffffffffffff1681526020018281526020019350505050602060405180830381600087803b1580156141b057600080fd5b505af11580156141c4573d6000803e3d6000fd5b505050506040513d60208110156141da57600080fd5b8101908080519060200190929190505050506000809050600080905060405160200180807f636f636b46696768740000000000000000000000000000000000000000000000815250600901905060405160208183030381529060405280519060200120600190049150662386f26fc100008281151561425557fe5b0691504282029150600a8281151561426957fe5b0691506000821415614279578291505b8160011115801561428b575060038211155b80156142975750600184145b1561451d57600283029050600260009054906101000a900473ffffffffffffffffffffffffffffffffffffffff1673ffffffffffffffffffffffffffffffffffffffff1663095ea7b330836040518363ffffffff167c0100000000000000000000000000000000000000000000000000000000028152600401808373ffffffffffffffffffffffffffffffffffffffff1673ffffffffffffffffffffffffffffffffffffffff16815260200182815260200192505050602060405180830381600087803b15801561436757600080fd5b505af115801561437b573d6000803e3d6000fd5b505050506040513d602081101561439157600080fd5b810190808051906020019092919050505050600260009054906101000a900473ffffffffffffffffffffffffffffffffffffffff1673ffffffffffffffffffffffffffffffffffffffff166323b872dd3033846040518463ffffffff167c0100000000000000000000000000000000000000000000000000000000028152600401808473ffffffffffffffffffffffffffffffffffffffff1673ffffffffffffffffffffffffffffffffffffffff1681526020018373ffffffffffffffffffffffffffffffffffffffff1673ffffffffffffffffffffffffffffffffffffffff1681526020018281526020019350505050602060405180830381600087803b15801561449c57600080fd5b505af11580156144b0573d6000803e3d6000fd5b505050506040513d60208110156144c657600080fd5b81019080805190602001909291905050505080600760003373ffffffffffffffffffffffffffffffffffffffff1673ffffffffffffffffffffffffffffffffffffffff168152602001908152602001600020819055505b8160041115801561452f575060068211155b801561453b5750600284145b156147c157600283029050600260009054906101000a900473ffffffffffffffffffffffffffffffffffffffff1673ffffffffffffffffffffffffffffffffffffffff1663095ea7b330836040518363ffffffff167c0100000000000000000000000000000000000000000000000000000000028152600401808373ffffffffffffffffffffffffffffffffffffffff1673ffffffffffffffffffffffffffffffffffffffff16815260200182815260200192505050602060405180830381600087803b15801561460b57600080fd5b505af115801561461f573d6000803e3d6000fd5b505050506040513d602081101561463557600080fd5b810190808051906020019092919050505050600260009054906101000a900473ffffffffffffffffffffffffffffffffffffffff1673ffffffffffffffffffffffffffffffffffffffff166323b872dd3033846040518463ffffffff167c0100000000000000000000000000000000000000000000000000000000028152600401808473ffffffffffffffffffffffffffffffffffffffff1673ffffffffffffffffffffffffffffffffffffffff1681526020018373ffffffffffffffffffffffffffffffffffffffff1673ffffffffffffffffffffffffffffffffffffffff1681526020018281526020019350505050602060405180830381600087803b15801561474057600080fd5b505af1158015614754573d6000803e3d6000fd5b505050506040513d602081101561476a57600080fd5b81019080805190602001909291905050505080600760003373ffffffffffffffffffffffffffffffffffffffff1673ffffffffffffffffffffffffffffffffffffffff168152602001908152602001600020819055505b816007111580156147d3575060098211155b80156147df5750600384145b15614a6557600283029050600260009054906101000a900473ffffffffffffffffffffffffffffffffffffffff1673ffffffffffffffffffffffffffffffffffffffff1663095ea7b330836040518363ffffffff167c0100000000000000000000000000000000000000000000000000000000028152600401808373ffffffffffffffffffffffffffffffffffffffff1673ffffffffffffffffffffffffffffffffffffffff16815260200182815260200192505050602060405180830381600087803b1580156148af57600080fd5b505af11580156148c3573d6000803e3d6000fd5b505050506040513d60208110156148d957600080fd5b810190808051906020019092919050505050600260009054906101000a900473ffffffffffffffffffffffffffffffffffffffff1673ffffffffffffffffffffffffffffffffffffffff166323b872dd3033846040518463ffffffff167c0100000000000000000000000000000000000000000000000000000000028152600401808473ffffffffffffffffffffffffffffffffffffffff1673ffffffffffffffffffffffffffffffffffffffff1681526020018373ffffffffffffffffffffffffffffffffffffffff1673ffffffffffffffffffffffffffffffffffffffff1681526020018281526020019350505050602060405180830381600087803b1580156149e457600080fd5b505af11580156149f8573d6000803e3d6000fd5b505050506040513d6020811015614a0e57600080fd5b81019080805190602001909291905050505080600760003373ffffffffffffffffffffffffffffffffffffffff1673ffffffffffffffffffffffffffffffffffffffff168152602001908152602001600020819055505b6000811415614ab4576001600760003373ffffffffffffffffffffffffffffffffffffffff1673ffffffffffffffffffffffffffffffffffffffff168152602001908152602001600020819055505b50505050565b600080600460003373ffffffffffffffffffffffffffffffffffffffff1673ffffffffffffffffffffffffffffffffffffffff1681526020019081526020016000205414151515614b73576040517f08c379a000000000000000000000000000000000000000000000000000000000815260040180806020018281038252600d8152602001807f4e6f20706c61792c207965742e0000000000000000000000000000000000000081525060200191505060405180910390fd5b600460003373ffffffffffffffffffffffffffffffffffffffff1673ffffffffffffffffffffffffffffffffffffffff16815260200190815260200160002054905090565b6000809054906101000a900473ffffffffffffffffffffffffffffffffffffffff1673ffffffffffffffffffffffffffffffffffffffff163373ffffffffffffffffffffffffffffffffffffffff16141515614c7c576040517f08c379a00000000000000000000000000000000000000000000000000000000081526004018080602001828103825260098152602001807f4e6f74204f776e6572000000000000000000000000000000000000000000000081525060200191505060405180910390fd5b806000806101000a81548173ffffffffffffffffffffffffffffffffffffffff021916908373ffffffffffffffffffffffffffffffffffffffff16021790555050565b80600260009054906101000a900473ffffffffffffffffffffffffffffffffffffffff1673ffffffffffffffffffffffffffffffffffffffff166370a08231336040518263ffffffff167c0100000000000000000000000000000000000000000000000000000000028152600401808273ffffffffffffffffffffffffffffffffffffffff1673ffffffffffffffffffffffffffffffffffffffff16815260200191505060206040518083038186803b158015614d7b57600080fd5b505afa158015614d8f573d6000803e3d6000fd5b505050506040513d6020811015614da557600080fd5b810190808051906020019092919050505010151515614e2c576040517f08c379a000000000000000000000000000000000000000000000000000000000815260040180806020018281038252600f8152602001807f4e6f7420656e6f7567687420444149000000000000000000000000000000000081525060200191505060405180910390fd5b600081118015614e4157506003546005028111155b1515614eb5576040517f08c379a00000000000000000000000000000000000000000000000000000000081526004018080602001828103825260178152602001807f4e6f74206265747765656e203020616e6420352044414900000000000000000081525060200191505060405180910390fd5b600260009054906101000a900473ffffffffffffffffffffffffffffffffffffffff1673ffffffffffffffffffffffffffffffffffffffff166323b872dd3330846040518463ffffffff167c0100000000000000000000000000000000000000000000000000000000028152600401808473ffffffffffffffffffffffffffffffffffffffff1673ffffffffffffffffffffffffffffffffffffffff1681526020018373ffffffffffffffffffffffffffffffffffffffff1673ffffffffffffffffffffffffffffffffffffffff1681526020018281526020019350505050602060405180830381600087803b158015614fae57600080fd5b505af1158015614fc2573d6000803e3d6000fd5b505050506040513d6020811015614fd857600080fd5b8101908080519060200190929190505050506000809050600080905060405160200180807f736d757266446179000000000000000000000000000000000000000000000000815250600801905060405160208183030381529060405280519060200120600190049150662386f26fc100008281151561505357fe5b0691504282029150600a8281151561506757fe5b069150838214156152f357600583029050600260009054906101000a900473ffffffffffffffffffffffffffffffffffffffff1673ffffffffffffffffffffffffffffffffffffffff1663095ea7b330836040518363ffffffff167c0100000000000000000000000000000000000000000000000000000000028152600401808373ffffffffffffffffffffffffffffffffffffffff1673ffffffffffffffffffffffffffffffffffffffff16815260200182815260200192505050602060405180830381600087803b15801561513d57600080fd5b505af1158015615151573d6000803e3d6000fd5b505050506040513d602081101561516757600080fd5b810190808051906020019092919050505050600260009054906101000a900473ffffffffffffffffffffffffffffffffffffffff1673ffffffffffffffffffffffffffffffffffffffff166323b872dd3033846040518463ffffffff167c0100000000000000000000000000000000000000000000000000000000028152600401808473ffffffffffffffffffffffffffffffffffffffff1673ffffffffffffffffffffffffffffffffffffffff1681526020018373ffffffffffffffffffffffffffffffffffffffff1673ffffffffffffffffffffffffffffffffffffffff1681526020018281526020019350505050602060405180830381600087803b15801561527257600080fd5b505af1158015615286573d6000803e3d6000fd5b505050506040513d602081101561529c57600080fd5b81019080805190602001909291905050505080600860003373ffffffffffffffffffffffffffffffffffffffff1673ffffffffffffffffffffffffffffffffffffffff168152602001908152602001600020819055505b6000811415615342576001600860003373ffffffffffffffffffffffffffffffffffffffff1673ffffffffffffffffffffffffffffffffffffffff168152602001908152602001600020819055505b50505050565b6000809054906101000a900473ffffffffffffffffffffffffffffffffffffffff1673ffffffffffffffffffffffffffffffffffffffff163373ffffffffffffffffffffffffffffffffffffffff1614151561540c576040517f08c379a00000000000000000000000000000000000000000000000000000000081526004018080602001828103825260098152602001807f4e6f74204f776e6572000000000000000000000000000000000000000000000081525060200191505060405180910390fd5b6000809050600260009054906101000a900473ffffffffffffffffffffffffffffffffffffffff1673ffffffffffffffffffffffffffffffffffffffff166370a08231306040518263ffffffff167c0100000000000000000000000000000000000000000000000000000000028152600401808273ffffffffffffffffffffffffffffffffffffffff1673ffffffffffffffffffffffffffffffffffffffff16815260200191505060206040518083038186803b1580156154cc57600080fd5b505afa1580156154e0573d6000803e3d6000fd5b505050506040513d60208110156154f657600080fd5b81019080805190602001909291905050509050600260009054906101000a900473ffffffffffffffffffffffffffffffffffffffff1673ffffffffffffffffffffffffffffffffffffffff1663095ea7b333836040518363ffffffff167c0100000000000000000000000000000000000000000000000000000000028152600401808373ffffffffffffffffffffffffffffffffffffffff1673ffffffffffffffffffffffffffffffffffffffff16815260200182815260200192505050602060405180830381600087803b1580156155ce57600080fd5b505af11580156155e2573d6000803e3d6000fd5b505050506040513d60208110156155f857600080fd5b810190808051906020019092919050505050600260009054906101000a900473ffffffffffffffffffffffffffffffffffffffff1673ffffffffffffffffffffffffffffffffffffffff166323b872dd3033846040518463ffffffff167c0100000000000000000000000000000000000000000000000000000000028152600401808473ffffffffffffffffffffffffffffffffffffffff1673ffffffffffffffffffffffffffffffffffffffff1681526020018373ffffffffffffffffffffffffffffffffffffffff1673ffffffffffffffffffffffffffffffffffffffff1681526020018281526020019350505050602060405180830381600087803b15801561570357600080fd5b505af1158015615717573d6000803e3d6000fd5b505050506040513d602081101561572d57600080fd5b81019080805190602001909291905050505050565b600080600660003373ffffffffffffffffffffffffffffffffffffffff1673ffffffffffffffffffffffffffffffffffffffff16815260200190815260200160002054141515156157fb576040517f08c379a000000000000000000000000000000000000000000000000000000000815260040180806020018281038252600d8152602001807f4e6f20706c61792c207965742e0000000000000000000000000000000000000081525060200191505060405180910390fd5b600660003373ffffffffffffffffffffffffffffffffffffffff1673ffffffffffffffffffffffffffffffffffffffff16815260200190815260200160002054905090565b806001819055505056fea165627a7a72305820ba7f0565234176b0b6ec11953b23d8af39bfd2f74c8550444943b30330f342700029",
  "source": "pragma solidity ^0.5.0;\r\n\r\n//Basic library\r\nimport \"./Migrations.sol\";\r\nimport \"@openzeppelin/contracts/token/ERC20/IERC20.sol\";\r\n\r\n//Here start RandoChaos version 1\r\n//I hope you enjoy the game, if want to read or reuse that code you are free to go.\r\ncontract RandoChaosV1 is Migrations{\r\n \t//Declaration of DAI and unity parameter\r\n\tIERC20 dai;\r\n\tuint256 unity = 10 ** 18;\r\n\t//Iniciation and fallback function\r\n\tconstructor(address _daiAddress) public{\r\n\t\tdai = IERC20(_daiAddress);\r\n\t} \r\n\tfunction() external payable{}\r\n\r\n\t//Mapping to show result, just keep address, anything else is stored\r\n\tmapping (address => uint) lastResult1;\r\n\tmapping (address => uint) lastResult2;\r\n\tmapping (address => uint) lastResult3;\r\n\tmapping (address => uint) lastResult4;\r\n\tmapping (address => uint) lastResult5;\r\n\r\n\t//Each of the following functions are used to acces to their personal result of each game\r\n\tfunction getLastResult() external view returns(uint256 _lastResult1){\r\n\t\trequire (lastResult1[msg.sender] != 0, \"No play, yet.\");\r\n\t\treturn(lastResult1[msg.sender]);\r\n\t}\r\n\tfunction getLastResult2() external view returns(uint256 _lastResult2){\r\n\t\trequire (lastResult2[msg.sender] != 0, \"No play, yet.\");\r\n\t\treturn(lastResult2[msg.sender]);\r\n\t}\r\n\tfunction getLastResult3() external view returns(uint256 _lastResult3){\r\n\t\trequire (lastResult3[msg.sender] != 0, \"No play, yet.\");\r\n\t\treturn(lastResult3[msg.sender]);\r\n\t}\r\n\tfunction getLastResult4() external view returns(uint256 _lastResult4){\r\n\t\trequire (lastResult4[msg.sender] != 0, \"No play, yet.\");\r\n\t\treturn(lastResult4[msg.sender]);\r\n\t}\r\n\tfunction getLastResult5() external view returns(uint256 _lastResult5){\r\n\t\trequire (lastResult5[msg.sender] != 0, \"No play, yet.\");\r\n\t\treturn(lastResult5[msg.sender]);\r\n\t}\r\n\t\r\n\t//Now comes Game functions, every name has a number asociated as seen before on getLastResult\r\n\t//1 -> Rulette\r\n\t//2 -> appleDrop\r\n\t//3 -> rapeGame\r\n\t//4 -> cockfight\r\n\t//5 -> smurfDay\r\n\r\n\t//Rulette function\r\n\tfunction rulette() external{\r\n\t\trequire (dai.balanceOf(msg.sender) >= unity, \"No enought DAI\");\r\n\t\t//Creating a semi-random number\r\n\t\tuint256 x = uint256(keccak256(abi.encodePacked(\"chaos\")));\r\n\t\tuint256 y ;\r\n\t\tx = x % (10 ** 16);\r\n\t\tx = x * uint256(now);\r\n\t\tx = x % (10 ** 1);\r\n\t\t//Transfering 1 DAI to this contract as the payment\r\n\t\t//Approve must go first\r\n\t\tdai.transferFrom(msg.sender, address(this), unity);\r\n\t\t//Each result has a case\r\n\t\tif(x == 0){\r\n\t\t\ty = unity;\r\n\t\t\tdai.transferFrom(address(this), msg.sender, y);//Returns 1 Dai\r\n\t\t}\t\t\r\n\t\tif(x == 1){\r\n\t\t\ty = 4 * (10 ** 17);\r\n\t\t\tdai.approve(address(this), y);\r\n\t\t\tdai.transferFrom(address(this), msg.sender, y);//Returns 0.4 Dai\r\n\t\t}\r\n\t\tif(x == 2){\r\n\t\t\ty = 2 * (10 ** 17);\r\n\t\t\tdai.approve(address(this), y);\r\n\t\t\tdai.transferFrom(address(this), msg.sender, y);//Returns 0.2 Dai\r\n\t\t}\r\n\t\tif(x == 3){\r\n\t\t\ty = 65 * (10 ** 16);\r\n\t\t\tdai.approve(address(this), y);\r\n\t\t\tdai.transferFrom(address(this), msg.sender, y); //Returns 0.65 Dai\r\n\t\t}\r\n\t\tif(x == 4){\r\n\t\t\ty = 45 * (10 ** 16);\r\n\t\t\tdai.approve(address(this), y);\r\n\t\t\tdai.transferFrom(address(this), msg.sender, y);//Returns 0.45 Dai\r\n\t\t}\r\n\t\tif(x == 5){\r\n\t\t\ty = 2 * (10 ** 18);\r\n\t\t\tdai.approve(address(this), y);\r\n\t\t\tdai.transferFrom(address(this), msg.sender, y);//Returns 2 Dai\r\n\t\t}\r\n\t\tif(x == 6){\r\n\t\t\ty = 8 * (10 ** 17);\r\n\t\t\tdai.approve(address(this), y);\r\n\t\t\tdai.transferFrom(address(this), msg.sender, y); //Returns 0.8 Dai\r\n\t\t}\r\n\t\tif(x == 7){\r\n\t\t\ty = 5 * (10 ** 17);\r\n\t\t\tdai.approve(address(this), y);\r\n\t\t\tdai.transferFrom(address(this), msg.sender, y);//Returns 0.2 Dai\r\n\t\t}\r\n\t\tif(x == 8){\r\n\t\t\ty = 6 * (10 ** 17);\r\n\t\t\tdai.approve(address(this), y);\r\n\t\t\tdai.transferFrom(address(this), msg.sender, y);//Retorns 2 Dai\r\n\t\t}\r\n\t\tif(x == 9){\r\n\t\t\ty = 5 * (10 ** 17);\r\n\t\t\tdai.approve(address(this), y);\r\n\t\t\tdai.transferFrom(address(this), msg.sender, y);//Retorns 0.5 Dai\r\n\t\t}\r\n\t\tlastResult1[msg.sender] = y;\r\n\t\t//Thanks to join our game\r\n\t}\r\n\t//Apple Drop function\r\n\tfunction appleDrop(uint256 _select, uint256 _amount) external{\r\n\t\trequire(dai.balanceOf(msg.sender) >= _amount, \"Not enought DAI\");\r\n\t\trequire(_amount > 0 && _amount <= (5 * unity), \"Not between 0 and 5 DAI\");\r\n\t\t//Approved first, we transfer the bet from msg.sender\r\n\t\tdai.transferFrom(msg.sender, address(this), _amount);\r\n\t\t//Creating a semi-random number between 1-9\r\n\t\tuint256 x = 0;\r\n\t\tuint256 y = 0;\r\n\t\tx = uint256(keccak256(abi.encodePacked(\"appleDrop\")));\r\n\t\tx = x % (10 ** 16);\r\n\t\tx = x * uint256(now);\r\n\t\tx = x % (10 ** 1);\r\n\t\tif(x == 0){\r\n\t\t\tx = _amount;\r\n\t\t}\r\n\t\t//Three possible answer, three If's. Allways return doble if correct.\r\n\t\t//1 left || 2 center || 3 right\r\n\t\tif(1 <= x && x <= 3 && _select == 1){\r\n\t\t\ty = _amount * 2;\r\n\t\t\tdai.approve(address(this), y);\r\n\t\t\tdai.transferFrom(address(this), msg.sender, y);\r\n\t\t\tlastResult2[msg.sender] = y;\r\n\t\t}\r\n\t\tif(4 <= x && x <= 6 && _select == 2){\r\n\t\t\ty = _amount * 2;\r\n\t\t\tdai.approve(address(this), y);\r\n\t\t\tdai.transferFrom(address(this), msg.sender, y);\r\n\t\t\tlastResult2[msg.sender] = y;\r\n\t\t}\r\n\t\tif(7 <= x && x <= 9 && _select == 3){\r\n\t\t\ty = _amount * 2;\r\n\t\t\tdai.approve(address(this), y);\r\n\t\t\tdai.transferFrom(address(this), msg.sender, y);\r\n\t\t\tlastResult2[msg.sender] = y;\r\n\t\t}\r\n\t\t//If fail, lastResult2 = 1;\r\n\t\tif(y == 0){\r\n\t\t\tlastResult2[msg.sender] = 1;\r\n\t\t}\r\n\t\t//Thanks to join our game\r\n\t}\r\n\t//Rape Game function\r\n\tfunction rapeGame(uint256 _select, uint256 _amount) external{\r\n\t\trequire(dai.balanceOf(msg.sender) >= _amount, \"Not enought DAI\");\r\n\t\trequire(_amount > 0 && _amount <= (5 * unity), \"Not between 0 and 5 DAI\");\r\n\t\t//Approved first, we transfer the bet from msg.sender\r\n\t\tdai.transferFrom(msg.sender, address(this), _amount);\r\n\t\t//Creating a semi-random number between 0-9\r\n\t\tuint256 x = 0;\r\n\t\tuint256 y = 0;\r\n\t\tx = uint256(keccak256(abi.encodePacked(\"rapeGame\")));\r\n\t\tx = x % (10 ** 16);\r\n\t\tx = x * uint256(now);\r\n\t\tx = x % (10 ** 1);\r\n\t\t//Five possible answer, five If's. Allways return per three if correct.\r\n\t\t//A || B || C || D || E\r\n\t\tif((0 == x || x == 1) && _select == 1){\r\n\t\t\ty = _amount * 3;\r\n\t\t\tdai.approve(address(this), y);\r\n\t\t\tdai.transferFrom(address(this), msg.sender, y);\r\n\t\t\tlastResult3[msg.sender] = y;\r\n\t\t}\r\n\t\tif((2 == x || x == 3) && _select == 2){\r\n\t\t\ty = _amount * 3;\r\n\t\t\tdai.approve(address(this), y);\r\n\t\t\tdai.transferFrom(address(this), msg.sender, y);\r\n\t\t\tlastResult3[msg.sender] = y;\r\n\t\t}\r\n\t\tif((4 == x || x == 5) && _select == 3){\r\n\t\t\ty = _amount * 3;\r\n\t\t\tdai.approve(address(this), y);\r\n\t\t\tdai.transferFrom(address(this), msg.sender, y);\r\n\t\t\tlastResult3[msg.sender] = y;\r\n\t\t}\r\n\t\tif((6 == x || x == 7) && _select == 4){\r\n\t\t\ty = _amount * 3;\r\n\t\t\tdai.approve(address(this), y);\r\n\t\t\tdai.transferFrom(address(this), msg.sender, y);\r\n\t\t\tlastResult3[msg.sender] = y;\r\n\t\t}\r\n\t\tif((8 == x || x == 9) && _select == 5){\r\n\t\t\ty = _amount * 3;\r\n\t\t\tdai.approve(address(this), y);\r\n\t\t\tdai.transferFrom(address(this), msg.sender, y);\r\n\t\t\tlastResult3[msg.sender] = y;\r\n\t\t}\r\n\t\t//If fail, lastResult3 = 1;\r\n\t\tif(y == 0){\r\n\t\t\tlastResult3[msg.sender] = 1;\r\n\t\t}\r\n\t\t//Thanks to join our game\r\n\t}\r\n\t//Cock Fight function\r\n\tfunction cockFight(uint256 _select, uint256 _amount) external{\r\n\t\trequire(dai.balanceOf(msg.sender) >= _amount, \"Not enought DAI\");\r\n\t\trequire(_amount > 0 && _amount <= (5 * unity), \"Not between 0 and 5 DAI\");\r\n\t\t//Approved first, we transfer the bet from msg.sender\r\n\t\tdai.transferFrom(msg.sender, address(this), _amount);\r\n\t\t//Creating a semi-random number between 1-9\r\n\t\tuint256 x = 0;\r\n\t\tuint256 y = 0;\r\n\t\tx = uint256(keccak256(abi.encodePacked(\"cockFight\")));\r\n\t\tx = x % (10 ** 16);\r\n\t\tx = x * uint256(now);\r\n\t\tx = x % (10 ** 1);\r\n\t\tif(x == 0){\r\n\t\t\tx = _amount;\r\n\t\t}\r\n\t\t//Three possible answer, three If's. Allways return doble if correct.\r\n\t\t//1 left || 2 center || 3 right\r\n\t\tif(1 <= x && x <= 3 && _select == 1){\r\n\t\t\ty = _amount * 2;\r\n\t\t\tdai.approve(address(this), y);\r\n\t\t\tdai.transferFrom(address(this), msg.sender, y);\r\n\t\t\tlastResult4[msg.sender] = y;\r\n\t\t}\r\n\t\tif(4 <= x && x <= 6 && _select == 2){\r\n\t\t\ty = _amount * 2;\r\n\t\t\tdai.approve(address(this), y);\r\n\t\t\tdai.transferFrom(address(this), msg.sender, y);\r\n\t\t\tlastResult4[msg.sender] = y;\r\n\t\t}\r\n\t\tif(7 <= x && x <= 9 && _select == 3){\r\n\t\t\ty = _amount * 2;\r\n\t\t\tdai.approve(address(this), y);\r\n\t\t\tdai.transferFrom(address(this), msg.sender, y);\r\n\t\t\tlastResult4[msg.sender] = y;\r\n\t\t}\r\n\t\t//If fail, lastResult4 = 1;\r\n\t\tif(y == 0){\r\n\t\t\tlastResult4[msg.sender] = 1;\r\n\t\t}\r\n\t\t//Thanks to join our game\r\n\t}\r\n\t//Smurf Day function\r\n\tfunction smurfDay(uint256 _select, uint256 _amount) external{\r\n\t\trequire(dai.balanceOf(msg.sender) >= _amount, \"Not enought DAI\");\r\n\t\trequire(_amount > 0 && _amount <= (5 * unity), \"Not between 0 and 5 DAI\");\r\n\t\t//Approved first, we transfer the bet from msg.sender\r\n\t\tdai.transferFrom(msg.sender, address(this), _amount);\r\n\t\t//Creating a semi-random number between 0-9\r\n\t\tuint256 x = 0;\r\n\t\tuint256 y = 0;\r\n\t\tx = uint256(keccak256(abi.encodePacked(\"smurfDay\")));\r\n\t\tx = x % (10 ** 16);\r\n\t\tx = x * uint256(now);\r\n\t\tx = x % (10 ** 1);\r\n\t\t//One If all power, easy if semi-random number is the same as selected you win. Allways return per five if correct.\r\n\t\t//0 || 1 || 2 || 3 || 4 || 5 || 6 || 7 || 8 || 9 \r\n\t\tif(x == _select){\r\n\t\t\ty = _amount * 5;\r\n\t\t\tdai.approve(address(this), y);\r\n\t\t\tdai.transferFrom(address(this), msg.sender, y);\r\n\t\t\tlastResult5[msg.sender] = y;\r\n\t\t}\r\n\t\t//If fail, lastResult5 = 1;\r\n\t\tif(y == 0){\r\n\t\t\tlastResult5[msg.sender] = 1;\r\n\t\t}\r\n\t\t//Thanks to join our game\r\n\t}\r\n\t//Set Up\r\n\t//Take the benefits of the contract\r\n\tfunction takeBenefits() external onlyOwner{\r\n\t\tuint256 x = 0;\r\n\t\tx = uint256(dai.balanceOf(address(this)));//Reads balance of the contract\r\n\t\tdai.approve(msg.sender, x);\r\n\t\tdai.transferFrom(address(this), msg.sender, x);\r\n\t\t//Then approve & transfer all money to my account jeje\t\t\r\n\t}\r\n\t//Change owner\r\n\tfunction newOwner(address _newOwnerAddres) external onlyOwner{\r\n\t\tchangeOwner(_newOwnerAddres);\r\n\t\t//If I want to change my account I have this function on Migrations\r\n\t}\r\n\r\n//Thanks to check this out, it's important that we keep a basic understanding on those games we play and put money on it, for that Ethereum BlockChain is one of the best ways.\r\n//See you on other DAPP ;)\r\n}\r\n\r\n\r\n",
  "sourcePath": "C:\\Users\\User\\Desktop\\Project\\CryptoLuck\\contracts\\RandoChaosV1.sol",
  "compiler": {
    "name": "solc",
    "version": "0.5.0+commit.1d4f565a.Emscripten.clang"
  },
  "schemaVersion": "3.2.0",
  "updatedAt": "2020-09-09T14:19:00.753Z",
  "networkType": "ethereum",
  "devdoc": {
    "methods": {}
  },
  "userdoc": {
    "methods": {}
  }
}